:100000008FC00000ABC00000A9C00000A7C0000066
:10001000A5C00000A3C00000A1C000009FC0000058
:100020009DC000009BC0000099C0000097C0000068
:1000300095C0000093C0000091C000008FC0000078
:100040008DC000008BC0000089C0000087C0000088
:1000500085C0000083C0000081C000007FC0000098
:100060007DC000007BC0000079C0000077C00000A8
:1000700075C0000073C0000071C000006FC00000B8
:100080006DC000006BC0000069C0000067C00000C8
:1000900065C0000063C0000061C000005FC00000D8
:1000A0005DC000005BC0000059C0000057C00000E8
:1000B00055C0000053C0000051C000004FC00000F8
:1000C0004DC000004BC0000049C0000047C0000008
:1000D00045C0000043C0000041C000003FC0000018
:1000E0003DC000003BC0000039C0000037C0000028
:1000F00035C0000033C0000031C000002FC0000038
:100100002DC000002BC0000029C0000027C0000047
:1001100025C0000023C0000021C000001FC0000057
:1001200011241FBECFEFD1E4DEBFCDBF12E0A0E0AF
:10013000B2E0EEEEF7E100E00BBF02C007900D92D7
:10014000A039B107D9F729E1A0E9B2E001C01D92B9
:10015000AE3DB207E1F7AED20C94F50B51CF6A9ADF
:100160006B9A6C9A729A739A749A0895813011F40A
:1001700072980895823011F473980895833009F4C9
:1001800074980895813011F4729A0895823011F4B0
:10019000739A0895833009F4749A0895FF920F9327
:1001A0001F93CF93DF93082F192FF62EC9E3D1E0C9
:1001B000188286E090E0C9D381E088838091410174
:1001C00080939002882351F488E0809342018EEF5F
:1001D00091E0BBD380914101809390028BE08093AA
:1001E00048018FEF80934F01009391021093920288
:1001F00000936001109361011092620110926301FB
:100200008091410180939002F0929302DF91CF910F
:100210001F910F91FF9008958FEF80934F0186E01B
:1002200080934201E1E4F1E080818F718630E1F753
:10023000ECE4F1E0808180688083089580919402ED
:100240001092940208952FEF20934F0120914101C5
:100250002F71293041F029E020934201E1E4F1E0DF
:1002600020812930E9F7262F235F2093800120E2A7
:100270002093810122E22093820121E020938301D7
:10028000109284011092850150938601409387015A
:1002900010928801109289012091920220938A0184
:1002A0002091910220938B01662391F0A82FB92F02
:1002B000615070E0CB0183579E4FECE8F1E02D9147
:1002C0002193E817F907D9F7FB01E357FE4F02C066
:1002D000ECE8F1E01082118282E080934201EFE4C9
:1002E000F1E0808186FFFDCF8FEF80934F0186E0A4
:1002F00080934201E1E4F1E080818F718630E1F783
:1003000081E080939402809141018093900208954E
:1003100090914F0181E093FF80E008958F929F922A
:10032000AF92BF92CF92DF92EF92FF920F931F9303
:10033000CF93782FC92F5A01490140917B018FEF4C
:1003400080930002EFE4F1E0808182FFFDCF0CC0DA
:10035000808190E08F7190702817390764F4808154
:100360008F718093000204C0AFE4B1E0E6E4F1E0F5
:100370002091000230E08C9183FFEACF842F8B50D4
:10038000462F861708F4482F3091850120E0809190
:10039000860190E0822B932BF5019183808330912D
:1003A000890120E080918A0190E0822B932BF40157
:1003B00091838083442399F0A72FBC2F242F2150B1
:1003C00030E0C90184579E4FEBE8F1E051915D9315
:1003D000E817F907D9F7F901E457FE4F02C0EBE837
:1003E000F1E0808180939502F6018083809147013E
:1003F00080939602F701808380914601881F8827A9
:10040000881FF8018083E1E4F1E080818F718630FC
:10041000E1F7ECE4F1E080818F7780838081806870
:1004200080838FEF80934F018091410180939002F0
:10043000842F8250CF911F910F91FF90EF90DF900A
:10044000CF90BF90AF909F908F900895E5E4F1E03A
:1004500090818F70907F982B9083089580914601B2
:100460008F7190910002981710F480930002089504
:1004700080910002109200020895809196020895E2
:100480008091950208958091930208958091910240
:100490009091920208954F925F926F927F928F9205
:1004A0009F92AF92BF92CF92DF92EF92FF924B0159
:1004B0005C01E4D12B013C01689413F876946794B5
:1004C000579447941694D1F70F2EFAE0CF2EF0E010
:1004D000DF2EF0E0EF2EF0E0FF2EF02DC501B4018D
:1004E000A7019601A2D6C301B2019FD6CA01B901E4
:1004F0006B5F7F4F8F4F9F4FA701960196D6DA0112
:10050000C9010197A109B109E1ECF0E01082109254
:10051000C00026E02093C200292F2F702093C50031
:100520008093C40088E1808381E092E09093DB199E
:100530008093DA19EAEDF9E19293829395838483AB
:1005400081E080939702FF90EF90DF90CF90BF9073
:10055000AF909F908F907F906F905F904F90089595
:10056000809197020895E0ECF0E0908195FFFDCF37
:100570008093C6000895CF93C82FF5DF8C2F90E0AD
:10058000CF910895CF93DF93EC018881882329F0E0
:100590002196E9DF89918823E1F7DF91CF910895D2
:1005A0008091C000881F8827881F0895F9DF88235D
:1005B000E9F38091C6000895CF93F8DFC82FD3DF09
:1005C0008C2F90E0CF910895BC0140919D025091F5
:1005D0009E024817590741F1AFE9B2E09D012E5E36
:1005E0003F4FFD018191919186179707E9F0E2173E
:1005F000F307C1F74115510541F021E030E0A901B1
:100600008D919D91009759F402C040E050E0FA01AD
:10061000EE0FFF1FE356FD4F7183608308952F5F38
:100620003F4F2A30310559F70895FC01009729F111
:100630008081882311F1808591850097F1F06623F0
:1006400039F022812130C9F401979187808706C053
:100650002281222391F4019791878087808591855B
:10066000009759F481E0838386819781009719F080
:1006700081E0818301C0118210820895FC01108203
:1006800011826283138255834483378326839CCFF0
:10069000FC018081882341F481E0808311821382F0
:1006A0008481958191878087CF018ECFFC01108254
:1006B00011820895CF93DF93CDB7DEB727970FB69A
:1006C000F894DEBF0FBECDBF0DE912E00F2EF4E1AE
:1006D000AF2EBB24F02DA00EB11EF8011192119285
:1006E000EA15FB05D9F7CFD01FD244245524332473
:1006F000702E612E0F2EFDE98F2EF2E09F2EF02D31
:100700009DDD882309F055D503DE882389F181EB2F
:1007100092E060E8AE014A5F5F4F9E012C5F3F4F61
:100720008E010D5F1F4FEE24FF246894E1F8EC0E5C
:10073000FD1E6E010894C11CD11CF0DD082F8B81B9
:100740008823B1F0A3DE2E813F818217930739F011
:100750008FEF2F3F380719F096DE882349F06C8120
:100760007D818E819F81402F50E021EB32E024D3A8
:10077000B0D0DC01CB014091980250919902609178
:100780009A0270919B02481759076A077B0778F510
:10079000A0D0DC01CB0188519C4FAF4FBF4F80935D
:1007A000980290939902A0939A02B0939B02072D0E
:1007B000162DD8018D919D918D0161E036DF0A15CE
:1007C0001B05B9F70894411C511CB8EE4B16B3E059
:1007D0005B0668F0072D162DF801819191918F012C
:1007E00060E023DFA016B106B9F744245524A72DF5
:1007F000B62D00E010E0ED91FD91309771F183810D
:10080000882359F1CF01C0D1C801880F991F880DE5
:10081000991DDC01ED91FC91119713828181882350
:1008200041F086819781009721F09187808781E050
:10083000808311821BD0882331F0332021F4E4D44B
:10084000332433945DCF16D0882309F459CF332055
:1008500009F456CFDAD4332453CF0F5F1F4F0A3039
:10086000110549F6E7CF6D98759A089581E065996D
:1008700080E00895FBDF91E08927089560E072E150
:100880008AE790E008951092800081E080938100D3
:1008900010928200109285001092840010926F00D6
:1008A0000895CF93DF93EC01EEDFD0938500C093E2
:1008B0008400DF91CF91089581E0B09B80E0882390
:1008C00011F091E096BB089580918400909185008D
:1008D0000895CF92DF92EF92FF92C0908400D09063
:1008E0008500D694C794D694C794D694C794EE2422
:1008F000FF24E2DF8823A1F080913103909132033D
:10090000A0913303B09134038050904EAF4FBF4F4E
:100910008093310390933203A0933303B093340355
:100920008091310390913203A0913303B09134034D
:10093000C80ED91EEA1EFB1E6C2D7D2D8E2D9F2DFF
:10094000FF90EF90DF90CF9008958F929F92AF929B
:10095000BF92CF92DF92EF92FF924C01AA24BB2468
:10096000880C991CAA1CBB1C880C991CAA1CBB1CBB
:10097000880C991CAA1CBB1C80E0881680E0980695
:1009800081E0A80680E0B80678F17501640180E096
:1009900090E087DF80E090E0AFEFBFEFC80ED91E98
:1009A000EA1EFB1E89DF8823E9F390E0C91690E078
:1009B000D90691E0E90690E0F90648F780E090E07A
:1009C000AFEFBFEF880E991EAA1EBB1EB501882788
:1009D000992720E030E04FEF5FEF18D4DC01CB0126
:1009E000880E991EAA1EBB1EC4018095909559DFE2
:1009F00063DF8823E9F3FF90EF90DF90CF90BF9003
:100A0000AF909F908F900895CF93DF93EC01823445
:100A1000910540F088EE9DEF98DFC154D040C2347C
:100A2000D105C0F7CE0191DFDF91CF9108958130DC
:100A3000910549F480911602909117029093150246
:100A40008093140208958230910549F48091180230
:100A500090911902909315028093140208958330A7
:100A6000910559F48091180290911902880F991FED
:100A7000909315028093140208958430910581F4B7
:100A80002091180230911902629FC001639F900D5E
:100A9000729F900D11249093150280931402089573
:100AA0008530910591F42091180230911902220F9E
:100AB000331F269FC001279F900D369F900D112454
:100AC0009093150280931402089586309105A1F445
:100AD0002091180230911902220F331F220F331F69
:100AE000269FC001279F900D369F900D1124909353
:100AF00015028093140208950797A9F42091180213
:100B000030911902220F331F220F331F220F331F80
:100B1000269FC001279F900D369F900D1124909322
:100B200015028093140208951ADB82E090E09093FE
:100B3000D9178093D81785E090E09093DB178093C6
:100B4000DA1760E081E090E029DB8FE07FDC28E9C4
:100B50003AE348EE53E061E084E493E08FDD28EE71
:100B600033E048EE53E061E08AE393E087DD84E41C
:100B700093E08EDD8AE393E08BDD4EDB60E875E287
:100B800080E090E088CC089523E08434920721F43B
:100B900081E08093110208958A53934009F00BC1BC
:100BA00080911A0290911B028130910509F04AC090
:100BB00080911102882309F4FEC082E090E09093B6
:100BC0001B0280931A02809139038111F4C081E0E5
:100BD0008093390380910F0290911002813091052A
:100BE000C1F4E0913503F0913603EE0FFF1FE85298
:100BF000F84E40815181E3E5FDE05183408381E07F
:100C000090E09383828384E0848365E0CF011BCBF3
:100C10000895E0913503F0913603EE0FFF1FE8527F
:100C2000F84E40815181E3E5FDE05183408321E0AE
:100C300030E03383228324839683858367E0CF016A
:100C400002CB08958330910509F061C0809137038C
:100C50009091380320911602309117028217930762
:100C60000CF04AC00196909338038093370382E0DA
:100C700090E090931B0280931A02809139038111B6
:100C80009AC081E08093390380910F029091100205
:100C900081309105C1F4E0913503F0913603EE0FF8
:100CA000FF1FE852F84E40815181E3E5FDE051839A
:100CB000408381E090E09383828384E0848365E0D5
:100CC000CF01C1CA0895E0913503F0913603EE0FCC
:100CD000FF1FE852F84E40815181E3E5FDE051836A
:100CE000408321E030E0338322832483968385830D
:100CF00067E0CF01A8CA089581E090E090931B02BD
:100D000080931A02109238031092370308950797C0
:100D100009F051C08091370390913803209114025B
:100D20003091150282179307E4F5019690933803EA
:100D30008093370386E090E090931B0280931A0221
:100D400080913903811137C081E08093390380910C
:100D50000F0290911002019791F485E0E3EDF7E125
:100D6000A3E5BDE001900D928A95E1F74091D3177C
:100D70005091D41765E083E59DE065CA089585E04C
:100D8000EEE4FDE0A3E5BDE001900D928A95E1F768
:100D900040914E0D50914F0D65E083E59DE053CAA3
:100DA000089581E090E090931B0280931A021092C4
:100DB0003803109237030895EF92FF920F931F9319
:100DC000CF93DF93E9010A8110E08C81813049F5EE
:100DD00080911A0290911B02039709F0E3C181E010
:100DE000C5D984E090E090931B0280931A02809111
:100DF00039038111D7C181E0809339031092380300
:100E000010923703E3E5FDE01183008381E090E079
:100E10009383828382E08483A80165E0CF0113DAA3
:100E2000C1C181115EC080911A0290911B02059789
:100E300009F0B8C182E09AD986E090E090931B0255
:100E400080931A02809139038111ACC1FF24F3947D
:100E5000F09239038091350390913603FC01EE0F37
:100E6000FF1F880F991F880F991F880F991FE80F80
:100E7000F91FED52F24F888190E0918380838A813F
:100E800090E0938382838C8184838D8190E096832C
:100E900085838F8190E090878783898581876581AD
:100EA000768180910F0290911002C1DD10934F0D59
:100EB00000934E0D81E090E09093510D8093500D82
:100EC000F092520D85E0EEE4FDE0A3E5BDE0019077
:100ED0000D928A95E1F7A80165E083E59DE0B3D91D
:100EE00061C1823009F07CC083E040D910923803A0
:100EF00010923703809112029091130220913503D2
:100F000030913603AC0141505109241735074CF09C
:100F1000181619069CF0E12CF12C10E040E050E08E
:100F200035C02F5F3F4F309336032093350381E068
:100F300090E090931B0280931A0234C1E8EDFDE02B
:100F4000ACEDBDE0BC01660F771F880F991F880FBD
:100F5000991F880F991F680F791F6852724FE12CF3
:100F6000F12C10E040E050E09F018281938148170E
:100F7000590710F41C91AC01E90188819981E80EB0
:100F8000F91E3A961A96E617F70771F75F934F9393
:100F90008CE192E09F938F9383D11F921F9386E3FE
:100FA00092E09F938F937CD1FF92EF9283E592E042
:100FB0009F938F9375D11092360310923503109240
:100FC000110281E0DFD883E0DDD882E0DBD88DB785
:100FD0009EB70C960FB6F8949EBF0FBE8DBFE2C0B1
:100FE000863049F580911A0290911B02039709F00F
:100FF000D9C081E0BBD884E090E090931B0280933D
:101000001A02809139038111CDC081E080933903A8
:101010001092380310923703E3E5FDE0118300835B
:1010200081E090E09383828387E08483A80165E078
:10103000CF0109D9B7C0853009F061C080911A028B
:1010400090911B02059709F0ADC082E08FD886E031
:1010500090E090931B0280931A02809139038111D2
:10106000A1C0FF24F394F09239038091350390914D
:101070003603FC01EE0FFF1F880F991F880F991F81
:10108000880F991FE80FF91FE25BFC4F888190E001
:10109000918380838A8190E0938382838C8184838F
:1010A0008D8190E0968385838F818783888590E00A
:1010B0009187808761E070E080910F02909110022B
:1010C000B6DC1093D4170093D31781E090E090938F
:1010D000D6178093D517F092D71785E0EEE4FDE0A0
:1010E000A3E5BDE001900D928A95E1F740914E0D88
:1010F00050914F0D65E083E59DE0A5D853C0873042
:1011000009F050C080911A0290911B02079709F0D4
:1011100049C08091350390913603FC01EE0FFF1F0B
:101120009C01220F331F220F331F220F331FE20FA8
:10113000F31FE25BFC4F208531852130310529F416
:1011400001969093360380933503809135039091F7
:101150003603209112023091130282179307D9F0BF
:1011600022E030E030931B0220931A02FC01EE0FC4
:10117000FF1FE852F84E40815181E3E5FDE05183C5
:10118000408381E090E09383828384E0848365E000
:10119000CF0159D807C089E792E09F938F9380D001
:1011A0000F900F90DF91CF911F910F91FF90EF90D3
:1011B000089510923903E3E5FDE083ED9DE011927F
:1011C000E817F907E1F780911A0290911B0282302B
:1011D000910539F483E090E090931B0280931A020A
:1011E00008958430910539F485E090E090931B02D6
:1011F00080931A020895069731F487E090E0909367
:101200001B0280931A02089508950895DB018F93BD
:101210009F932DD0BF91AF91A29F800D911DA39F51
:10122000900DB29F900D11240895A1E21A2EAA1BD1
:10123000BB1BFD010DC0AA1FBB1FEE1FFF1FA21786
:10124000B307E407F50720F0A21BB30BE40BF50B83
:10125000661F771F881F991F1A9469F7609570950C
:10126000809590959B01AC01BD01CF01089509D0F7
:10127000A59F900DB49F900DA49F800D911D1124EA
:101280000895A29FB001B39FC001A39F700D811D5F
:101290001124911DB29F700D811D1124911D08957F
:1012A000CF93DF93CDB7DEB7FE0135966191719193
:1012B000AF018091DA199091DB1903D0DF91CF91C2
:1012C00008952F923F924F925F926F927F928F92EA
:1012D0009F92AF92BF92CF92DF92EF92FF920F93C5
:1012E0001F93CF93DF93CDB7DEB72C970FB6F8944B
:1012F000DEBF0FBECDBF7C016B018A01FC011782EE
:101300001682838181FFB0C1CE0101964C01F701A5
:101310009381F60193FD859193FF81916F0188235D
:1013200009F49EC1853239F493FD859193FF819133
:101330006F01853221F4B70190E0C7D1E8CF512C7D
:10134000312C20E02032A0F48B3269F030F480326E
:1013500059F0833269F420612CC08D3239F080332A
:1013600039F4216026C02260246023C0286021C097
:1013700027FD27C030ED380F3A3078F426FF06C03D
:10138000FAE05F9E300D1124532E13C08AE0389E80
:10139000300D1124332E20620CC08E3221F426FD34
:1013A0005FC1206406C08C3611F4206802C0883604
:1013B00041F4F60193FD859193FF81916F018111B5
:1013C000C1CF982F9F7D9554933028F40C5F1F4F09
:1013D000FFE3F9830DC0833631F0833771F0833535
:1013E00009F057C021C0F801808189830E5F1F4F2B
:1013F00044244394512C540114C03801F2E06F0E80
:10140000711CF801A080B18026FF03C0652D70E03B
:1014100002C06FEF7FEFC5012C874CD12C018301F7
:101420002C852F77222E16C03801F2E06F0E711C2A
:10143000F801A080B18026FF03C0652D70E002C0D6
:101440006FEF7FEFC5012C872AD12C012C852068F6
:10145000222E830123FC19C0832D90E048165906E3
:10146000A0F4B70180E290E030D13A94F5CFF501D5
:1014700027FC859127FE81915F01B70190E025D17E
:1014800031103A94F1E04F1A51084114510479F7A0
:10149000DEC0843611F0893631F5F80127FF07C028
:1014A00060817181828193810C5F1F4F08C06081D0
:1014B0007181882777FD8095982F0E5F1F4F2F76BB
:1014C000B22E97FF09C090958095709561957F4FDA
:1014D0008F4F9F4F2068B22E2AE030E0A40127D121
:1014E000A82EA81843C0853729F42F7EB22E2AE0F3
:1014F00030E025C0F22FF97FBF2E8F36C1F018F4EF
:10150000883579F0ADC0803719F0883721F0A8C050
:101510002F2F2061B22EB4FE0DC08B2D8460B82E0B
:1015200009C024FF0AC09F2F9660B92E06C028E08C
:1015300030E005C020E130E002C020E132E0F801F7
:10154000B7FE07C060817181828193810C5F1F4F5C
:1015500006C06081718180E090E00E5F1F4FA401A2
:10156000E6D0A82EA818FB2DFF77BF2EB6FE0BC025
:101570002B2D2E7FA51450F4B4FE0AC0B2FC08C077
:101580002B2D2E7E05C07A2C2B2D03C07A2C01C06A
:10159000752C24FF0DC0FE01EA0DF11D8081803302
:1015A00011F4297E09C022FF06C07394739404C00D
:1015B000822F867809F0739423FD12C020FF06C0A5
:1015C0005A2C731418F4530C5718732C731460F4BA
:1015D000B70180E290E02C8778D073942C85F6CF09
:1015E000731410F4371801C0312C24FF11C0B70157
:1015F00080E390E02C8769D02C8522FF16C021FF64
:1016000003C088E590E002C088E790E0B7010CC015
:10161000822F867851F021FD02C080E201C08BE26A
:1016200027FD8DE2B70190E050D0A51430F4B7014A
:1016300080E390E04AD05A94F8CFAA94F401EA0DDE
:10164000F11D8081B70190E040D0A110F6CF33208A
:1016500009F45DCEB70180E290E037D03A94F7CF3D
:10166000F7018681978102C08FEF9FEF2C960FB60E
:10167000F894DEBF0FBECDBFDF91CF911F910F91C8
:10168000FF90EF90DF90CF90BF90AF909F908F90A2
:101690007F906F905F904F903F902F900895FC0146
:1016A0000590615070400110D8F7809590958E0F8D
:1016B0009F1F0895FC016150704001900110D8F700
:1016C000809590958E0F9F1F08950F931F93CF9332
:1016D000DF93182F092FEB018B8181FD03C08FEF62
:1016E0009FEF20C082FF10C04E815F812C813D8121
:1016F000421753077CF4E881F9819F012F5F3F4F28
:1017000039832883108306C0E885F985812F0995E0
:10171000892B29F72E813F812F5F3F4F3F832E83F7
:10172000812F902FDF91CF911F910F910895FA0192
:10173000AA27283051F1203181F1E8946F936E7F10
:101740006E5F7F4F8F4F9F4FAF4FB1E03ED0B4E001
:101750003CD0670F781F891F9A1FA11D680F791F42
:101760008A1F911DA11D6A0F711D811D911DA11D53
:1017700020D009F468943F912AE0269F1124301963
:10178000305D3193DEF6CF010895462F4770405DFE
:101790004193B3E00FD0C9F7F6CF462F4F70405DAD
:1017A0004A3318F0495D31FD4052419302D0A9F708
:1017B000EACFB4E0A6959795879577956795BA9502
:1017C000C9F700976105710508959B01AC010A2EC8
:1017D00006945795479537952795BA95C9F7620F9F
:0E17E000731F841F951FA01D0895F894FFCF5E
:1017EE00FF0000000300000000BB02DC020000044A
:1017FE000001020002000A00020001004D6178693A
:10180E006D756D2074656D70657261747572653A73
:10181E002025640D0A004D61782074656D70657227
:10182E00617475726520736F757263653A202564F5
:10183E000D0A004E756D626572206F66206E6F64C4
:10184E00657320646174612074616B656E206672CD
:10185E006F6D3A2025640D0A005072696E74206F08
:10186E00757420616C6C207468652064617461000D
:00000001FF
