S014000053696E6B4E6F64654E6F76392E7372656389
S11300008FC00000ABC00000A9C00000A7C0000062
S1130010A5C00000A3C00000A1C000009FC0000054
S11300209DC000009BC0000099C0000097C0000064
S113003095C0000093C0000091C000008FC0000074
S11300408DC000008BC0000089C0000087C0000084
S113005085C0000083C0000081C000007FC0000094
S11300607DC000007BC0000079C0000077C00000A4
S113007075C0000073C0000071C000006FC00000B4
S11300806DC000006BC0000069C0000067C00000C4
S113009065C0000063C0000061C000005FC00000D4
S11300A05DC000005BC0000059C0000057C00000E4
S11300B055C0000053C0000051C000004FC00000F4
S11300C04DC000004BC0000049C0000047C0000004
S11300D045C0000043C0000041C000003FC0000014
S11300E03DC000003BC0000039C0000037C0000024
S11300F035C0000033C0000031C000002FC0000034
S11301002DC000002BC0000029C0000027C0000043
S113011025C0000023C0000021C000001FC0000053
S113012011241FBECFEFD1E4DEBFCDBF12E0A0E0AB
S1130130B2E0ECEBF1E100E00BBF02C007900D92DE
S1130140A032B107D9F727E0A0E2B2E001C01D92C6
S1130150A736B207E1F7F6D10C94DC0851CFFF9231
S11301600F931F93CF93DF93082F192FF62EC9E314
S1130170D1E0188286E090E030D381E088838091DA
S1130180410180932002882351F488E08093420146
S11301908EEF91E022D380914101809320028BE085
S11301A0809348018FEF80934F01009321021093B5
S11301B02202009360011093610110926201109277
S11301C063018091410180932002F0922302DF9128
S11301D0CF911F910F91FF9008958FEF80934F015E
S11301E086E080934201E1E4F1E080818F71863002
S11301F0E1F7ECE4F1E080818068808308958091E8
S113020024021092240208952FEF20934F0120918D
S113021041012F71293041F029E020934201E1E4AA
S1130220F1E020812930E9F7262F235F2093800114
S113023020E22093810122E22093820121E0209395
S1130240830110928401109285015093860140939A
S11302508701109288011092890120912202209333
S11302608A012091210220938B01662391F0A82F0B
S1130270B92F615070E0CB0183579E4FECE8F1E059
S11302802D912193E817F907D9F7FB01E357FE4FA6
S113029002C0ECE8F1E01082118282E08093420116
S11302A0EFE4F1E0808186FFFDCF8FEF80934F0173
S11302B086E080934201E1E4F1E080818F71863031
S11302C0E1F781E080932402809141018093200230
S11302D0089590914F0181E093FF80E008958F92FB
S11302E09F92AF92BF92CF92DF92EF92FF920F93C1
S11302F01F93CF93782FC92F5A01490140917B0155
S11303008FEF80930002EFE4F1E0808182FFFDCF64
S11303100CC0808190E08F7190702817390764F4C5
S113032080818F718093000204C0AFE4B1E0E6E401
S1130330F1E02091000230E08C9183FFEACF842F1A
S11303408B50462F861708F4482F3091850120E002
S11303508091860190E0822B932BF5019183808319
S11303603091890120E080918A0190E0822B932BC7
S1130370F40191838083442399F0A72FBC2F242F69
S1130380215030E0C90184579E4FEBE8F1E05191D0
S11303905D93E817F907D9F7F901E457FE4F02C056
S11303A0EBE8F1E0808180932502F601808380915F
S11303B0470180932602F701808380914601881FBC
S11303C08827881FF8018083E1E4F1E080818F7140
S11303D08630E1F7ECE4F1E080818F7780838081DF
S11303E0806880838FEF80934F01809141018093D7
S11303F02002842F8250CF911F910F91FF90EF9094
S1130400DF90CF90BF90AF909F908F900895E5E4D8
S1130410F1E090818F70907F982B90830895809164
S113042046018F7190910002981710F48093000296
S1130430089580910002109200020895809126028E
S11304400895809125020895809123020895809152
S11304502102909122020895BC0140912C025091F6
S11304602D024817590741F1AEE2B2E09D012E5E1C
S11304703F4FFD018191919186179707E9F0E217AB
S1130480F307C1F74115510541F021E030E0A9011E
S11304908D919D91009759F402C040E050E0FA011B
S11304A0EE0FFF1FE45DFD4F7183608308952F5F9E
S11304B03F4F2A30310559F70895FC01009729F17F
S11304C08081882311F1808591850097F1F066235E
S11304D039F022812130C9F401979187808706C0C1
S11304E02281222391F401979187808780859185C9
S11304F0009759F481E0838386819781009719F0EE
S113050081E0818301C0118210820895FC01108270
S113051011826283138255834483378326839CCF5D
S1130520FC018081882341F481E08083118213825D
S11305308481958191878087CF018ECFFC011082C1
S113054011820895CF93DF93CDB7DEB727970FB607
S1130550F894DEBF0FBECDBF0CE212E00F2EF4E123
S1130560AF2EBB24F02DA00EB11EF80111921192F2
S1130570EA15FB05D9F7CFD0A2D14424552433245E
S1130580702E612E0F2EFCE28F2EF2E09F2EF02DA6
S113059036DE882309F016D39CDE882389F180E4B3
S11305A092E060E8AE014A5F5F4F9E012C5F3F4FCF
S11305B08E010D5F1F4FEE24FF246894E1F8EC0ECA
S11305C0FD1E6E010894C11CD11C89DE082F8B818D
S11305D08823B1F03CDF2E813F818217930739F0E5
S11305E08FEF2F3F380719F02FDF882349F06C81F4
S11305F07D818E819F81402F50E020E432E035D20E
S1130600B0D0DC01CB0140912702509128026091C7
S1130610290270912A02481759076A077B0778F55F
S1130620A0D0DC01CB0188519C4FAF4FBF4F8093CA
S1130630270290932802A0932902B0932A02072D3F
S1130640162DD8018D919D918D0161E036DF0A153B
S11306501B05B9F70894411C511CB8EE4B16B3E0C6
S11306605B0668F0072D162DF801819191918F0199
S113067060E023DFA016B106B9F744245524A72D62
S1130680B62D00E010E0ED91FD91309771F183817A
S1130690882359F1CF013DD1C801880F991F880DD6
S11306A0991DDC01ED91FC911197138281818823BE
S11306B041F086819781009721F09187808781E0BE
S11306C0808311821BD0882331F0332021F4A5D2FA
S11306D0332433945DCF16D0882309F459CF3320C3
S11306E009F456CF9BD2332453CF0F5F1F4F0A30E8
S11306F0110549F6E7CF6D98759A089581E06599DB
S113070080E00895FBDF91E08927089560E072E1BD
S11307108AE790E008951092800081E08093810040
S113072010928200109285001092840010926F0043
S11307300895CF93DF93EC01EEDFD0938500C0934F
S11307408400DF91CF91089581E0B09B80E08823FD
S113075011F091E096BB08958091840090918500FA
S11307600895CF92DF92EF92FF92C0908400D090D0
S11307708500D694C794D694C794D694C794EE248F
S1130780FF24E2DF8823A1F08091C0029091C1028E
S1130790A091C202B091C3028050904EAF4FBF4FA0
S11307A08093C0029093C102A093C202B093C3028B
S11307B08091C0029091C102A091C202B091C30283
S11307C0C80ED91EEA1EFB1E6C2D7D2D8E2D9F2D6D
S11307D0FF90EF90DF90CF9008958F929F92AF9209
S11307E0BF92CF92DF92EF92FF924C01AA24BB24D6
S11307F0880C991CAA1CBB1C880C991CAA1CBB1C29
S1130800880C991CAA1CBB1C80E0881680E0980602
S113081081E0A80680E0B80678F17501640180E003
S113082090E087DF80E090E0AFEFBFEFC80ED91E05
S1130830EA1EFB1E89DF8823E9F390E0C91690E0E5
S1130840D90691E0E90690E0F90648F780E090E0E7
S1130850AFEFBFEF880E991EAA1EBB1EB5018827F5
S1130860992720E030E04FEF5FEFD9D1DC01CB01D5
S1130870880E991EAA1EBB1EC4018095909559DF4F
S113088063DF8823E9F3FF90EF90DF90CF90BF9070
S1130890AF909F908F900895CF93DF93EC018234B3
S11308A0910540F088EE9DEF98DFC154D040C234EA
S11308B0D105C0F7CE0191DFDF91CF91089582E099
S11308C090E09093600580935F0583E090E09093BF
S11308D062058093610560E081E090E040DC8FE098
S11308E096DD20E432E448EE53E061E083ED92E0EB
S11308F00DDE28EE33E048EE53E061E089EC92E04F
S113090005DE83ED92E00CDE89EC92E009DE65CC35
S11309100895CF93DF93CDB7DEB7C058D1090FB692
S1130920F894DEBF0FBECDBF22E0833D920721F4D1
S113093081E0809301028FC0895C924009F08BC0F2
S1130940809106029091070281309105F1F4809123
S11309500102882309F47FC082E090E090930702AB
S113096080930602E091C402F091C502EE0FFF1FCE
S1130970E15AFA4F40815181498381E08B838D8311
S113098066E0CE01019640DC66C083309105A1F596
S11309908091C6029091C702209104023091050211
S11309A082179307F4F401969093C7028093C602CA
S11309B082E090E09093070280930602E091C402E3
S11309C0F091C502EE0FFF1FE15AFA4F40815181A9
S11309D0498381E08B838D8366E0CE01019614DC2C
S11309E03AC081E090E0909307028093060210924F
S11309F0C7021092C6022FC0079769F58091C602FC
S1130A009091C70220910402309105028217930746
S1130A10C4F401969093C7028093C602E091DD026C
S1130A20F091DE028081898382818B8384818D832E
S1130A3085818E834081518166E0CE010196E4DB9D
S1130A400AC081E090E0909307028093060210921E
S1130A50C7021092C602C058DF4F0FB6F894DEBF2B
S1130A600FBECDBFDF91CF910895CF93DF93CDB764
S1130A70DEB7C058D1090FB6F894DEBF0FBECDBFA4
S1130A80F9018481428153818130D9F48091060235
S1130A9090910702039709F08BC084E090E0909353
S1130AA00702809306021092C7021092C60249837D
S1130AB081E08B8382E08D8366E0CE010196A4DB26
S1130AC077C081112AC08091060290910702059790
S1130AD009F06EC03093600720935F078285938589
S1130AE0E091C402F091C502EE0FFF1FE15AFC4FE2
S1130AF09183808386E090E09093070280930602BE
S1130B001092DE021092DD02498381E08B838D8393
S1130B1066E0CE01019678DB4BC0823009F048C014
S1130B201092C7021092C6028091020290910302B1
S1130B302091C4023091C502AC01415051092417DF
S1130B40350734F01816190684F020E030E01FC091
S1130B502F5F3F4F3093C5022093C40281E090E0A1
S1130B60909307028093060223C0EFE5F3E0AC0103
S1130B70440F551F415A5C4F20E030E08191919120
S1130B802817390708F49C01E417F507B9F73F93D0
S1130B902F9388E092E09F938F9369D01092C502BF
S1130BA01092C402109201020F900F900F900F90B8
S1130BB0C058DF4F0FB6F894DEBF0FBECDBFDF9134
S1130BC0CF9108951092C802EFEDF2E08FE593E023
S1130BD01192E817F907E1F7809106029091070254
S1130BE08230910539F483E090E09093070280937A
S1130BF0060208958430910539F485E090E09093DD
S1130C000702809306020895069731F487E090E086
S1130C109093070280930602089508950895DB01D6
S1130C208F939F930BD0BF91AF91A29F800D911D85
S1130C30A39F900DB29F900D1124089509D0A59FF4
S1130C40900DB49F900DA49F800D911D11240895C3
S1130C50A29FB001B39FC001A39F700D811D1124F9
S1130C60911DB29F700D811D1124911D0895CF9384
S1130C70DF93CDB7DEB7FE01359661917191AF0177
S1130C80809163079091640703D0DF91CF91089519
S1130C902F923F924F925F926F927F928F929F9288
S1130CA0AF92BF92CF92DF92EF92FF920F931F9376
S1130CB0CF93DF93CDB7DEB72C970FB6F894DEBF92
S1130CC00FBECDBF7C016B018A01FC011782168225
S1130CD0838181FFB0C1CE0101964C01F70193815C
S1130CE0F60193FD859193FF81916F01882309F4A7
S1130CF09EC1853239F493FD859193FF81916F01F3
S1130D00853221F4B70190E0C7D1E8CF512C312CC2
S1130D1020E02032A0F48B3269F030F4803259F0B4
S1130D20833269F420612CC08D3239F0803339F478
S1130D30216026C02260246023C0286021C027FDD2
S1130D4027C030ED380F3A3078F426FF06C0FAE0B9
S1130D505F9E300D1124532E13C08AE0389E300D4F
S1130D601124332E20620CC08E3221F426FD5FC183
S1130D70206406C08C3611F4206802C0883641F421
S1130D80F60193FD859193FF81916F018111C1CF8C
S1130D90982F9F7D9554933028F40C5F1F4FFFE3E9
S1130DA0F9830DC0833631F0833771F0833509F050
S1130DB057C021C0F801808189830E5F1F4F4424EE
S1130DC04394512C540114C03801F2E06F0E711C8D
S1130DD0F801A080B18026FF03C0652D70E002C039
S1130DE06FEF7FEFC5012C874CD12C0183012C853B
S1130DF02F77222E16C03801F2E06F0E711CF80115
S1130E00A080B18026FF03C0652D70E002C06FEFA3
S1130E107FEFC5012C872AD12C012C852068222E36
S1130E20830123FC19C0832D90E048165906A0F4D1
S1130E30B70180E290E030D13A94F5CFF50127FC78
S1130E40859127FE81915F01B70190E025D1311092
S1130E503A94F1E04F1A51084114510479F7DEC075
S1130E60843611F0893631F5F80127FF07C0608117
S1130E707181828193810C5F1F4F08C060817181F1
S1130E80882777FD8095982F0E5F1F4F2F76B22EFF
S1130E9097FF09C090958095709561957F4F8F4F0E
S1130EA09F4F2068B22E2AE030E0A40127D1A82E5B
S1130EB0A81843C0853729F42F7EB22E2AE030E0EB
S1130EC025C0F22FF97FBF2E8F36C1F018F4883574
S1130ED079F0ADC0803719F0883721F0A8C02F2FE2
S1130EE02061B22EB4FE0DC08B2D8460B82E09C0D3
S1130EF024FF0AC09F2F9660B92E06C028E030E078
S1130F0005C020E130E002C020E132E0F801B7FE84
S1130F1007C060817181828193810C5F1F4F06C07D
S1130F206081718180E090E00E5F1F4FA401E6D0E4
S1130F30A82EA818FB2DFF77BF2EB6FE0BC02B2DB5
S1130F402E7FA51450F4B4FE0AC0B2FC08C02B2DA9
S1130F502E7E05C07A2C2B2D03C07A2C01C0752C53
S1130F6024FF0DC0FE01EA0DF11D8081803311F4D0
S1130F70297E09C022FF06C07394739404C0822F93
S1130F80867809F0739423FD12C020FF06C05A2C02
S1130F90731418F4530C5718732C731460F4B701BA
S1130FA080E290E02C8778D073942C85F6CF73146C
S1130FB010F4371801C0312C24FF11C0B70180E3AD
S1130FC090E02C8769D02C8522FF16C021FF03C036
S1130FD088E590E002C088E790E0B7010CC0822F5A
S1130FE0867851F021FD02C080E201C08BE227FD2A
S1130FF08DE2B70190E050D0A51430F4B70180E33E
S113100090E04AD05A94F8CFAA94F401EA0DF11D65
S11310108081B70190E040D0A110F6CF332009F4CD
S11310205DCEB70180E290E037D03A94F7CFF70174
S11310308681978102C08FEF9FEF2C960FB6F894AC
S1131040DEBF0FBECDBFDF91CF911F910F91FF90F7
S1131050EF90DF90CF90BF90AF909F908F907F9054
S11310606F905F904F903F902F900895FC010590F2
S1131070615070400110D8F7809590958E0F9F1F96
S11310800895FC016150704001900110D8F78095DB
S113109090958E0F9F1F08950F931F93CF93DF9307
S11310A0182F092FEB018B8181FD03C08FEF9FEF78
S11310B020C082FF10C04E815F812C813D81421788
S11310C053077CF4E881F9819F012F5F3F4F3983F7
S11310D02883108306C0E885F985812F0995892B1B
S11310E029F72E813F812F5F3F4F3F832E83812F2E
S11310F0902FDF91CF911F910F910895FA01AA27A4
S1131100283051F1203181F1E8946F936E7F6E5F46
S11311107F4F8F4F9F4FAF4FB1E03ED0B4E03CD0F4
S1131120670F781F891F9A1FA11D680F791F8A1FD7
S1131130911DA11D6A0F711D811D911DA11D20D03E
S113114009F468943F912AE0269F11243019305DF8
S11311503193DEF6CF010895462F4770405D4193E9
S1131160B3E00FD0C9F7F6CF462F4F70405D4A3336
S113117018F0495D31FD4052419302D0A9F7EACFFE
S1131180B4E0A6959795879577956795BA95C9F72D
S113119000976105710508959B01AC010A2E069420
S11311A05795479537952795BA95C9F7620F731FD9
S10F11B0841F951FA01D0895F894FFCF24
S11311BCFF010200040001004D6178696D756D201A
S11311CC74656D70657261747572653A202564007E
S9030000FC
