:100000008FC00000ABC00000A9C00000A7C0000066
:10001000A5C00000A3C00000A1C000009FC0000058
:100020009DC000009BC0000099C0000097C0000068
:1000300095C0000093C0000091C000008FC0000078
:100040008DC000008BC0000089C0000087C0000088
:1000500085C0000083C0000081C000007FC0000098
:100060007DC000007BC0000079C0000077C00000A8
:1000700075C0000073C0000071C000006FC00000B8
:100080006DC000006BC0000069C0000067C00000C8
:1000900065C0000063C0000061C000005FC00000D8
:1000A0005DC000005BC0000059C0000057C00000E8
:1000B00055C0000053C0000051C000004FC00000F8
:1000C0004DC000004BC0000049C0000047C0000008
:1000D00045C0000043C0000041C000003FC0000018
:1000E0003DC000003BC0000039C0000037C0000028
:1000F00035C0000033C0000031C000002FC0000038
:100100002DC000002BC0000029C0000027C0000047
:1001100025C0000023C0000021C000001FC0000057
:1001200011241FBECFEFD1E4DEBFCDBF15E0A0E0AC
:10013000B2E0E0E3F9E200E00BBF02C007900D92ED
:10014000A83AB107D9F723E1A8EAB5E001C01D92AA
:10015000A834B207E1F7B1D20C94961451CF6A9A41
:100160006B9A6C9A729A739A749A0895813011F40A
:1001700072980895823011F473980895833009F4C9
:1001800074980895813011F4729A0895823011F4B0
:10019000739A0895833009F4749A0895FF920F9327
:1001A0001F93CF93DF93082F192FF62EC9E3D1E0C9
:1001B000188286E090E0CFD381E08883809141016E
:1001C0008093A805882351F488E0809342018EEF44
:1001D00091E0C1D3809141018093A8058BE0809389
:1001E00048018FEF80934F010093A9051093AA0552
:1001F00000936001109361011092620110926301FB
:10020000809141018093A805F092AB05DF91CF91D9
:100210001F910F91FF9008958FEF80934F0186E01B
:1002200080934201E1E4F1E080818F718630E1F753
:10023000ECE4F1E080818068808308958091AC05D2
:100240001092AC0508952FEF20934F0120914101AA
:100250002F71293041F029E020934201E1E4F1E0DF
:1002600020812930E9F7262F235F2093800120E2A7
:100270002093810122E22093820121E020938301D7
:10028000109284011092850150938601409387015A
:1002900010928801109289012091AA0520938A0169
:1002A0002091A90520938B01662391F0A82FB92FE7
:1002B000615070E0CB0183579E4FECE8F1E02D9147
:1002C0002193E817F907D9F7FB01E357FE4F02C066
:1002D000ECE8F1E01082118282E080934201EFE4C9
:1002E000F1E0808186FFFDCF8FEF80934F0186E0A4
:1002F00080934201E1E4F1E080818F718630E1F783
:1003000081E08093AC05809141018093A805089518
:1003100090914F0181E093FF80E008958F929F922A
:10032000AF92BF92CF92DF92EF92FF920F931F9303
:10033000CF93782FC92F5A01490140917B018FEF4C
:1003400080930002EFE4F1E0808182FFFDCF0CC0DA
:10035000808190E08F7190702817390764F4808154
:100360008F718093000204C0AFE4B1E0E6E4F1E0F5
:100370002091000230E08C9183FFEACF842F8B50D4
:10038000462F861708F4482F3091850120E0809190
:10039000860190E0822B932BF5019183808330912D
:1003A000890120E080918A0190E0822B932BF40157
:1003B00091838083442399F0A72FBC2F242F2150B1
:1003C00030E0C90184579E4FEBE8F1E051915D9315
:1003D000E817F907D9F7F901E457FE4F02C0EBE837
:1003E000F1E080818093AD05F60180838091470123
:1003F0008093AE05F701808380914601881F88278E
:10040000881FF8018083E1E4F1E080818F718630FC
:10041000E1F7ECE4F1E080818F7780838081806870
:1004200080838FEF80934F01809141018093A805D5
:10043000842F8250CF911F910F91FF90EF90DF900A
:10044000CF90BF90AF909F908F900895E5E4F1E03A
:1004500090818F70907F982B9083089580914601B2
:100460008F7190910002981710F480930002089504
:10047000809100021092000208958091AE050895C7
:100480008091AD0508958091AB0508958091A905EF
:100490009091AA0508954F925F926F927F928F92EA
:1004A0009F92AF92BF92CF92DF92EF92FF924B0159
:1004B0005C01EAD12B013C01689413F876946794AF
:1004C000579447941694D1F70F2EFAE0CF2EF0E010
:1004D000DF2EF0E0EF2EF0E0FF2EF02DC501B4018D
:1004E000A70196010E948911C301B2010E948911DE
:1004F000CA01B9016B5F7F4F8F4F9F4FA7019601D4
:100500000E948911DA01C9010197A109B109E1EC41
:10051000F0E010821092C00026E02093C200292F44
:100520002F702093C5008093C40088E1808381E010
:1005300092E09093451380934413E4E4F3E19293A3
:1005400082939583848381E08093AF05FF90EF9041
:10055000DF90CF90BF90AF909F908F907F906F90E3
:100560005F904F9008958091AF050895E0ECF0E022
:10057000908195FFFDCF8093C6000895CF93C82F3B
:10058000F5DF8C2F90E0CF910895CF93DF93EC01AE
:100590008881882329F02196E9DF89918823E1F772
:1005A000DF91CF9108958091C000881F8827881F10
:1005B0000895F9DF8823E9F38091C6000895CF9369
:1005C000F8DFC82FD3DF8C2F90E0CF910895BC01C6
:1005D0004091B5055091B6054817590741F1A7EB71
:1005E000B5E09D012E5E3F4FFD01819191918617EF
:1005F0009707E9F0E217F307C1F74115510541F0FC
:1006000021E030E0A9018D919D91009759F402C03D
:1006100040E050E0FA01EE0FFF1FEB54FA4F7183F8
:10062000608308952F5F3F4F2A30310559F70895B1
:10063000FC01009729F18081882311F18085918543
:100640000097F1F0662339F022812130C9F4019737
:100650009187808706C02281222391F40197918798
:10066000808780859185009759F481E08383868116
:100670009781009719F081E0818301C01182108277
:100680000895FC0110821182628313825583448392
:10069000378326839CCFFC018081882341F481E04D
:1006A0008083118213828481958191878087CF0115
:1006B0008ECFFC01108211820895CF93DF93CDB7C6
:1006C000DEB727970FB6F894DEBF0FBECDBF05EBA0
:1006D00015E00F2EF4E1AF2EBB24F02DA00EB11EBD
:1006E000F80111921192EA15FB05D9F7D2D059D22F
:1006F000442455243324702E612E0F2EF5EB8F2EBB
:10070000F5E09F2EF02D9ADD882311F00E94AD0FA9
:10071000FFDD882389F189EC95E060E8AE014A5F4E
:100720005F4F9E012C5F3F4F8E010D5F1F4FEE24E8
:10073000FF246894E1F8EC0EFD1E6E010894C11CC4
:10074000D11CECDD082F8B818823B1F09FDE2E8138
:100750003F818217930739F08FEF2F3F380719F049
:1007600092DE882349F06C817D818E819F81402FAC
:1007700050E029EC35E09ED4B2D0DC01CB014091B1
:10078000B0055091B1056091B2057091B30548175D
:1007900059076A077B0778F5A2D0DC01CB018851A5
:1007A0009C4FAF4FBF4F8093B0059093B105A0937E
:1007B000B205B093B305072D162DD8018D919D91EB
:1007C0008D0161E035DF0A151B05B9F70894411C5E
:1007D000511CB8EE4B16B3E05B0668F0072D162DE2
:1007E000F801819191918F0160E022DFA016B1069E
:1007F000B9F744245524A72DB62D00E010E0ED9163
:10080000FD91309781F18381882369F1CF01E2D195
:10081000C801880F991F880D991DDC01ED91FC918D
:10082000119713828181882341F0868197810097F7
:1008300021F09187808781E0808311821DD08823F9
:1008400039F0332029F40E94F60F332433945BCF20
:1008500017D0882309F457CF332009F454CF0E94CE
:10086000F70F332450CF0F5F1F4F0A30110539F6B1
:10087000E5CF6D98759A089581E0659980E00895B7
:10088000FBDF91E08927089560E072E18AE790E05C
:1008900008951092800081E0809381001092820080
:1008A000109285001092840010926F000895CF93EB
:1008B000DF93EC01EEDFD0938500C0938400DF91DD
:1008C000CF91089581E0B09B80E0882311F091E002
:1008D00096BB089580918400909185000895CF92F1
:1008E000DF92EF92FF92C0908400D0908500D69462
:1008F000C794D694C794D694C794EE24FF24E2DF1D
:100900008823A1F08091490690914A06A0914B0658
:10091000B0914C068050904EAF4FBF4F8093490628
:1009200090934A06A0934B06B0934C0680914906DB
:1009300090914A06A0914B06B0914C06C80ED91E64
:10094000EA1EFB1E6C2D7D2D8E2D9F2DFF90EF90AE
:10095000DF90CF9008958F929F92AF92BF92CF92E7
:10096000DF92EF92FF924C01AA24BB24880C991CC1
:10097000AA1CBB1C880C991CAA1CBB1C880C991CAB
:10098000AA1CBB1C80E0881680E0980681E0A806BF
:1009900080E0B80680F17501640180E090E087DFB7
:1009A00080E090E0AFEFBFEFC80ED91EEA1EFB1E3D
:1009B00089DF8823E9F390E0C91690E0D90691E039
:1009C000E90690E0F90648F780E090E0AFEFBFEF6E
:1009D000880E991EAA1EBB1EB5018827992720E004
:1009E00030E04FEF5FEF0E947A11DC01CB01880EFF
:1009F000991EAA1EBB1EC4018095909558DF62DF28
:100A00008823E9F3FF90EF90DF90CF90BF90AF90F5
:100A10009F908F900895CF93DF93EC0182349105DE
:100A200040F088EE9DEF97DFC154D040C234D1052D
:100A3000C0F7CE0190DFDF91CF9108958AE08093D7
:100A4000770088E080937B0089EC80937C0084ECC5
:100A500080937A00EAE7F0E0808186FDFDCF109276
:100A60007A0080917800909179000895E7DFBC01C9
:100A700080E090E00E94891027ED33EA40E95FE3CF
:100A80000E94171126E636E648E853E40E94F80F64
:100A90000E945D10CB0108958130910539F48AE000
:100AA00090E0909312028093110208958230910594
:100AB00049F4809113029091140290931202809352
:100AC000110208958330910559F480911302909199
:100AD0001402880F991F90931202809311020895B7
:100AE0008430910581F42091130230911402629FA9
:100AF000C001639F900D729F900D1124909312027C
:100B00008093110208958530910591F4209113028C
:100B100030911402220F331F269FC001279F900D92
:100B2000369F900D11249093120280931102089524
:100B300086309105A1F42091130230911402220F06
:100B4000331F220F331F269FC001279F900D369F12
:100B5000900D112490931202809311020895873012
:100B60009105B1F42091130230911402220F331F2A
:100B7000220F331F220F331F269FC001279F900D86
:100B8000369F900D112490931202809311020895C4
:100B9000089731F488E290E090931202809311025A
:100BA0000895DDDA60E875E280E090E074DC60E0F2
:100BB00087E090E0F3DA8FE049DC28EE33E048EE9E
:100BC00053E061E080E696E05CDD80E696E063DD80
:100BD00023CB0895809115029091160283309105E0
:100BE00009F090C0209155063091560680910F0271
:100BF00090911002281739070CF073C082E090E042
:100C0000909316028093150280915F06811151C264
:100C100081E080935F06809157069091580681305D
:100C20009105F9F487E192E00E94D51185E0ECE0AE
:100C3000F1E1ACE8B6E001900D928A95E1F7809180
:100C4000500690915106019690935106809350065C
:100C500040910C1150910D1165E08CE896E0F3DAAB
:100C600036C00897B1F48FE292E00E94D51185E07A
:100C7000E2E8F6E0ACE8B6E001900D928A95E1F783
:100C8000409182065091830665E08CE896E0DBDABD
:100C90001EC080E592E00E94D51185E0EDE7F6E008
:100CA000ACE8B6E001900D928A95E1F7809150068C
:100CB0009091510601969093510680935006409171
:100CC0007D0650917E0665E08CE896E0BCDA809166
:100CD00055069091560601969093560680935506B8
:100CE000089585E692E00E94D51183E03FDA81E025
:100CF00090E090931602809315021092560610927F
:100D0000550608958730910509F0ADC080914D06D4
:100D1000882309F4CEC12091550630915606809162
:100D20000F0290911002281739070CF08BC084E055
:100D300090E0909316028093150280915F068111D6
:100D4000B8C181E080935F06809157069091580664
:100D50008130910529F58EE692E00E94D511E0914F
:100D60005B06F0915C06EE0FFF1FE85CFE4E4081D3
:100D70005181ECE8F6E05183408387E090E0938373
:100D8000828384E08483809150069091510601967D
:100D9000909351068093500665E0CF0154DA48C025
:100DA0000897E1F483E892E00E94D511E0915B0698
:100DB000F0915C06EE0FFF1FE85CFE4E4081518112
:100DC000ECE8F6E05183408387E090E093838283F0
:100DD00088E0848365E0CF0136DA2AC081EA92E0B8
:100DE0000E94D511E0915B06F0915C06EE0FFF1FAB
:100DF000E85CFE4E408151818091570690915806E3
:100E0000ECE8F6E05183408327E030E0338322832F
:100E100021E024839683858380915006909151062A
:100E20000196909351068093500667E0CF010BDA4C
:100E300080915506909156060196909356068093A0
:100E40005506089585E692E00E94D51183E08ED97B
:100E500081E090E09093160280931502109256065E
:100E60001092550608958930910509F090C020919F
:100E70005506309156068091110290911202281762
:100E800039070CF073C088E090E0909316028093CD
:100E9000150280915F0681110CC181E080935F068D
:100EA000809157069091580681309105F9F48FEAA8
:100EB00092E00E94D51185E0ECE0F1E1ACE8B6E00B
:100EC00001900D928A95E1F780915006909151061C
:100ED0000196909351068093500640910C115091C9
:100EE0000D1165E08CE896E0AED936C00897B1F4F4
:100EF00086EC92E00E94D51185E0E2E8F6E0ACE8ED
:100F0000B6E001900D928A95E1F7409182065091EA
:100F1000830665E08CE896E096D91EC085EE92E0E7
:100F20000E94D51185E0ECE0F1E1ACE8B6E001907B
:100F30000D928A95E1F780915006909151060196A5
:100F4000909351068093500640910C1150910D11D1
:100F500065E08CE896E077D9809155069091560629
:100F600001969093560680935506089585E692E083
:100F70000E94D51183E0FAD881E090E090931602A8
:100F800080931502109256061092550608950B97FD
:100F900009F08FC0209155063091560680911102BC
:100FA00090911202281739070CF073C08AE090E084
:100FB000909316028093150280915F06811179C08B
:100FC00081E080935F0680915706909158068130AA
:100FD0009105F9F485EF92E00E94D5118AE0EEE2E6
:100FE000F1E1ACE8B6E001900D928A95E1F78091CD
:100FF00050069091510601969093510680935006A9
:1010000040912E1150912F116AE08CE896E01BD987
:1010100036C00897B1F489E093E00E94D5118EE0C4
:10102000EAE6F6E0ACE8B6E001900D928A95E1F7C9
:1010300040916A0650916B066EE08CE896E003D909
:101040001EC086E293E00E94D5118AE0E8E3F3E156
:10105000ACE8B6E001900D928A95E1F780915006D8
:1010600090915106019690935106809350064091BD
:101070003813509139136AE08CE896E0E4D88091F7
:101080005506909156060196909356068093550604
:10109000089585E692E00E94D51183E067D881E04B
:1010A00090E09093160280931502109256061092CB
:1010B00055060895AF92BF92CF92DF92FF920F93A1
:1010C0001F93CF93DF93E90180914E0690914F06D5
:1010D000019690934F0680934E06FA800F2D10E0F4
:1010E0008C81813009F009C180911502909116021E
:1010F0008130910509F09AC080915D0690915E065D
:10110000892B09F440C083E393E00E94D51182E06B
:1011100090E0909316028093150281E027D8809189
:101120005F06811110C721E020935F0610937E06B1
:1011300000937D0687E090E09093800680937F0681
:1011400020938106C80190935A068093590685E042
:10115000EDE7F6E0ACE8B6E001900D928A95E1F794
:1011600010925606109255068091520690915306A1
:1011700001969093530680935206A80165E08CE88F
:1011800096E061D8E0C684E493E00E94D5118D8199
:1011900090E0909358068093570661E070E07CDC05
:1011A0008AE090E0909316028093150281E00E94FD
:1011B000B60080915F068111C6C681E080935F060C
:1011C000C8E3D3E11983088387E090E090933B1351
:1011D00080933A1310923C1381E090E090933E1379
:1011E00080933D1343DC9093401380933F1387E03B
:1011F000809341138AE0FE01ACE8B6E001900D92C5
:101200008A95E1F710925606109255068091520683
:10121000909153060196909353068093520648810D
:1012200059816AE08CE896E00ED88DC6873091052A
:1012300081F586E090E0909316028093150210925B
:101240004D0680915F0681117EC686E593E00E947F
:10125000D51181E080935F06ECE8F6E0118300830E
:1012600087E090E09383828382E084831092560625
:1012700010925506809152069091530601969093D4
:10128000530680935206A80165E0CF010E94230116
:101290005AC60B9709F057C688E693E00E94D5110D
:1012A0008CE090E0909316028093150282E00E94F9
:1012B000B60080915F06811146C681E080935F068B
:1012C000ECE8F6E01183008387E090E0938382836B
:1012D00082E0848310925606109255068091520641
:1012E0009091530601969093530680935206A8015D
:1012F00065E0CF010E94230126C6811180C0809144
:10130000150290911602079709F01DC689E793E030
:101310000E94D51188E090E0909316028093150208
:1013200080915B0690915C06FC01EE0FFF1F880F19
:10133000991F880F991F880F991FE80FF91FE45F05
:10134000F84F888190E0918380838A8190E0938335
:1013500082838C8184838D8190E0968385838F81C5
:1013600090E09087878389858187658176818091E8
:1013700057069091580690DB80915B0690915C0631
:10138000FC01EE0FFF1F880F991F880F991F880F10
:10139000991FE80FF91FE45FF84F42815381509382
:1013A0007E0640937D0687E090E0909380068093D0
:1013B0007F0681E08093810680915F068111C3C51D
:1013C00081E080935F0685E0EDE7F6E0ACE8B6E00B
:1013D00001900D928A95E1F71092560610925506EB
:1013E00080915206909153060196909353068093F4
:1013F000520665E08CE896E00E942301A4C5823085
:1014000009F030C180911502909116028330910548
:1014100009F03EC087E893E0C8D784E090E090935D
:1014200016028093150281E080934D0680915F063D
:10143000811189C561E060935F06E0915B06F091E0
:101440005C06EE0FFF1FE85CFE4E408151818091EB
:10145000570690915806ECE8F6E05183408327E068
:1014600030E033832283648396838583109256060B
:1014700010925506809152069091530601969093D2
:1014800053068093520667E0CF010E9423015BC59B
:10149000099709F058C520915D0630915E062150EC
:1014A000310980915B0690915C06821793070CF0DE
:1014B00044C08EE993E079D780915B0690915C06F9
:1014C000019690935C0680935B0624E030E03093B5
:1014D00016022093150221E020934D0620915F060D
:1014E000211131C561E060935F06FC01EE0FFF1F23
:1014F000E85CFE4E408151818091570690915806DC
:10150000ECE8F6E05183408327E030E03383228328
:1015100064839683858310925606109255068091B7
:10152000520690915306019690935306809352066B
:1015300067E0CF010E94230106C588EB93E035D711
:1015400080915D0690915E06181619064CF5E1E152
:10155000F7E0A5E1B7E0AC01440F551F880F991FD4
:10156000880F991F880F991F480F591F4F5E584FBA
:10157000A12CB12CF12C00E010E09F01828193811D
:101580000817190710F4FC908C01E90188819981F2
:10159000A80EB91E3A961A96E417F50771F705C01A
:1015A000A12CB12CF12C00E010E060DA6C010817DE
:1015B000190710F0680104C00F2EF7E0FF2EF02D80
:1015C000E5012196BE01809157069091580664DA94
:1015D0008AE090E09093160280931502809159065C
:1015E00090915A06909339138093381387E090E0D6
:1015F00090933B1380933A1310923C13D0933E1375
:10160000C0933D13D0924013C0923F13F092411308
:1016100082E00E94B60080915F06811194C481E04F
:1016200080935F068AE0E8E3F3E1ACE8B6E001907E
:101630000D928A95E1F71092560610925506809108
:10164000520690915306019690935306809352064A
:1016500040913813509139136AE08CE896E00E946B
:10166000230171C4843009F006C181E090E09093B9
:101670005806809357068BEC93E097D6809115021D
:1016800090911602019709F05EC480915406882358
:1016900009F453C082EE93E088D681E090E0909305
:1016A00058068093570661E070E0F6D98AE090E032
:1016B000909316028093150281E00E94B6008091FB
:1016C0005F06811140C481E080935F06CEE2D1E1E4
:1016D0001983088387E090E0909331118093301153
:1016E00010923211C3D9909334118093331187E053
:1016F0008093351181E090E09093371180933611FB
:101700008AE0FE01ACE8B6E001900D928A95E1F71F
:1017100010925606109255068091520690915306EB
:1017200001969093530680935206488159816AE04E
:101730008CE896E00E94230106C480915D0690919A
:101740005E06892B09F443C089EF93E02ED682E030
:1017500090E0909316028093150281E00E94B600FB
:1017600080915F068111EFC381E080935F06109343
:101770000D1100930C1187E090E090930F1180936E
:101780000E1186E0809310118F2D90E090935A06F1
:101790008093590685E0ECE0F1E1ACE8B6E0019019
:1017A0000D928A95E1F71092560610925506809197
:1017B00052069091530601969093530680935206D9
:1017C000A80165E08CE896E00E942301BCC388E094
:1017D00094E0EBD581E090E0909358068093570613
:1017E00061E070E059D98AE090E09093160280930E
:1017F000150281E00E94B60080915F068111A3C3AB
:1018000081E080935F06CEE2D1E11983088387E00F
:1018100090E0909331118093301185E080933211E4
:1018200025D9909334118093331187E0809335113B
:1018300081E090E090933711809336118AE0FE01A9
:10184000ACE8B6E001900D928A95E1F71092560649
:1018500010925506809152069091530601969093EE
:10186000530680935206488159816AE08CE896E0DD
:101870000E94230168C3863009F065C0809115027B
:10188000909116028730910561F58AE294E08DD53A
:1018900086E090E0909316028093150280915F0697
:1018A000811151C381E080935F06ECE8F6E011837B
:1018B000008387E090E093838283848310925606AE
:1018C000109255068091520690915306019690937E
:1018D000530680935206A80165E0CF010E942301C0
:1018E00032C30B9709F02FC384E494E05ED58CE0FB
:1018F00090E0909316028093150282E00E94B60059
:1019000080915F0681111FC381E080935F06ECE840
:10191000F6E01183008387E090E0938382838483E1
:1019200010925606109255068091520690915306D9
:1019300001969093530680935206A80165E0CF016B
:101940000E94230100C3873009F0B1C080911502C5
:10195000909116028330910509F055C08DE594E011
:1019600024D584E090E0909316028093150281E0E4
:1019700080934D0680915F068111E5C281E08093DE
:101980005F06E0915B06F0915C06EE0FFF1FE85CDE
:10199000FE4ED081C181CF93DF938CE794E09F937B
:1019A0008F93F2D4809158068F93809157068F932E
:1019B0008CE894E09F938F93E7D4ECE8F6E0D08333
:1019C000C18387E090E09383828386E084831092D2
:1019D0005606109255068091520690915306019634
:1019E00090935306809352064D2F5C2F65E0CF01F4
:1019F0000E942301EDB7FEB738960FB6F894FEBFEC
:101A00000FBEEDBFA0C2099709F09DC28AE090E029
:101A1000909316028093150281EA94E0C6D48091D7
:101A20001E1190911F110197B9F480915B0690915E
:101A30005C0620915D0630915E068217930721F4C3
:101A400081E08093540608C0821793072CF4019616
:101A500090935C0680935B064091590650915A061C
:101A6000509317114093161180915F0681116BC23C
:101A700081E080935F068AE0E6E1F1E1ACE8B6E060
:101A800001900D928A95E1F7109256061092550634
:101A9000809152069091530601969093530680933D
:101AA00052066AE08CE896E00E9423014CC2853021
:101AB00009F06AC08091150290911602079709F00B
:101AC00042C28FEB94E071D488E090E090931602CC
:101AD00080931502888190E09093171180931611DE
:101AE00008E111E18A8190E0F801918380838C8183
:101AF00080931A118D8190E090931C1180931B119B
:101B00008F8180931D11888590E090931F118093A1
:101B10001E1161E070E080915706909158060E9476
:101B20004C05E8014881598150930D1140930C11E7
:101B300087E090E090930F1180930E1186E08093E0
:101B4000101180915F068111FEC181E080935F06D4
:101B500085E0ECE0F1E1ACE8B6E001900D928A9509
:101B6000E1F7109256061092550680915206909118
:101B700053060196909353068093520665E08CE8D5
:101B800096E00E942301DFC1883009F0B3C0809144
:101B9000150290911602019709F0D5C18091540663
:101BA0008823A1F184ED94E000D488E090E0909344
:101BB00058068093570661E070E00E944C058AE069
:101BC00090E0909316028093150281E00E94B60087
:101BD00080915F068111B7C181E080935F068EE03E
:101BE000EAE6F6E0ACE8B6E001900D928A95E1F7FE
:101BF000109256061092550640916A0650916B0657
:101C00006EE08CE896E00E9423019DC180915D0604
:101C100090915E06892BD1F181E392E0C6D382E0F8
:101C200090E0909316028093150281E00E94B60026
:101C300080915F06811187C181E080935F061093D8
:101C400083060093820687E090E090938506809358
:101C500084068AE0809386068F2D90E090935A0642
:101C60008093590685E0E2E8F6E0ACE8B6E0019042
:101C70000D928A95E1F71092560610925506A8012A
:101C800065E08CE896E00E9423015DC18DEE94E052
:101C90008CD388E090E0909358068093570661E0DB
:101CA00070E00E944C058AE090E0909316028093C9
:101CB000150281E00E94B60080915F06811143C148
:101CC00081E080935F068EE0EAE6F6E0ACE8B6E0FD
:101CD00001900D928A95E1F71092560610925506E2
:101CE00040916A0650916B066EE08CE896E00E9487
:101CF000230129C18A3009F059C0809115029091C1
:101D000016028730910541F586E090E09093160227
:101D10008093150280E195E09F938F9335D30F90C8
:101D20000F9080915F0681110EC181E080935F0664
:101D3000ECE8F6E01183008387E090E093838283F0
:101D40008BE084831092560610925506A80165E038
:101D5000CF010E942301F7C00B9709F0F4C08CE07B
:101D600090E0909316028093150282E00E94B600E4
:101D700082E395E01AD380915F068111E4C081E08F
:101D800080935F06ECE8F6E01183008387E090E043
:101D9000938382838BE084831092560610925506BB
:101DA000A80165E0CF010E942301CDC08B3009F06E
:101DB00086C0809115029091160283309105A1F59D
:101DC00084E090E0909316028093150281E0809366
:101DD0004D068FE495E09F938F93D6D20F900F908E
:101DE00080915F068111AFC081E080935F06E09132
:101DF0005B06F0915C06EE0FFF1FE85CFE4E408133
:101E00005181ECE8F6E05183408387E090E09383D2
:101E100082838AE08483109256061092550665E00C
:101E2000CF010E9423018FC0099709F08CC08AE07E
:101E300090E0909316028093150285E795E0B5D265
:101E400080912C1190912D110197B9F480915B062E
:101E500090915C0620915D0630915E068217930793
:101E600021F481E08093540608C0821793072CF474
:101E7000019690935C0680935B06409159065091C1
:101E80005A06509321114093201180915F068111D1
:101E90005AC081E080935F068EE0E0E2F1E1ACE8B9
:101EA000B6E001900D928A95E1F7109256061092D5
:101EB00055066EE08CE896E00E94230144C089300C
:101EC00009F041C08DE895E070D2809115029091A3
:101ED00016020797C1F588E090E090931602809370
:101EE000150261E070E080915706909158060E94BB
:101EF0004C05409122115091231150938306409339
:101F0000820687E090E090938506809384068AE0BD
:101F10008093860680915F06811115C081E08093D1
:101F20005F0685E0E2E8F6E0ACE8B6E001900D92ED
:101F30008A95E1F7109256061092550665E08CE8F6
:101F400096E00E942301DF91CF911F910F91FF90A6
:101F5000DF90CF90BF90AF90089510925F06ECE8AD
:101F6000F6E08CE097E01192E817F907E1F780912D
:101F70001502909116028230910539F483E090E0C9
:101F8000909316028093150208958430910539F4D8
:101F900087E090E0909316028093150208958630B2
:101FA000910539F487E090E0909316028093150232
:101FB00008958830910539F489E090E090931602F5
:101FC0008093150208958C30910539F481E090E0FA
:101FD000909316028093150208950A9731F48BE0CE
:101FE00090E0909316028093150208950895089545
:101FF0005058BB27AA270ED0E0C0D1D030F0D6D0A1
:1020000020F031F49F3F11F41EF4C6C00EF4E095A9
:10201000E7FBBCC0E92FE2D080F3BA176207730771
:102020008407950718F071F49EF5FAC00EF4E09558
:102030000B2EBA2FA02D0B01B90190010C01CA0182
:10204000A0011124FF27591B99F0593F50F4503E2D
:1020500068F11A16F040A22F232F342F4427585F1F
:10206000F3CF469537952795A795F0405395C9F737
:102070007EF41F16BA0B620B730B840BBAF09150EF
:10208000A1F0FF0FBB1F661F771F881FC2F70EC08E
:10209000BA0F621F731F841F48F487957795679561
:1020A000B795F7959E3F08F0B3CF9395880F08F04A
:1020B0009927EE0F97958795089598D088F09F57A8
:1020C00090F0B92F9927B751A0F0D1F0660F771F84
:1020D000881F991F1AF0BA95C9F712C0B13081F064
:1020E0009FD0B1E008959CC0672F782F8827B85FF4
:1020F00039F0B93FCCF3869577956795B395D9F7C5
:102100003EF490958095709561957F4F8F4F9F4FCE
:102110000895E89409C097FB3EF4909580957095DA
:1021200061957F4F8F4F9F4F9923A9F0F92F96E923
:10213000BB279395F695879577956795B795F11198
:10214000F8CFFAF4BB0F11F460FF1BC06F5F7F4F35
:102150008F4F9F4F16C0882311F096E911C0772347
:1021600021F09EE8872F762F05C0662371F096E850
:10217000862F70E060E02AF09A95660F771F881F1F
:10218000DAF7880F9695879597F9089597F99F67DD
:1021900080E870E060E008959FEF80EC08950024EF
:1021A0000A941616170618060906089500240A94BC
:1021B00012161306140605060895092E0394000C42
:1021C00011F4882352F0BB0F40F4BF2B11F460FFD1
:1021D00004C06F5F7F4F8F4F9F4F089557FD9058FA
:1021E000440F551F59F05F3F71F04795880F97FBDB
:1021F000991F61F09F3F79F0879508951216130695
:102200001406551FF2CF4695F1DF08C016161706C3
:102210001806991FF1CF86957105610508940895F8
:10222000E894BB2766277727CB0197F908950BD051
:10223000C4CFB5DF28F0BADF18F0952309F0A6CF98
:10224000ABCF1124EECFCADFA0F3959FD1F3950F4A
:1022500050E0551F629FF001729FBB27F00DB11D2A
:10226000639FAA27F00DB11DAA1F649F6627B00DBA
:10227000A11D661F829F2227B00DA11D621F739FA3
:10228000B00DA11D621F839FA00D611D221F749FB1
:102290003327A00D611D231F849F600D211D822FF8
:1022A000762F6A2F11249F5750408AF0E1F088233F
:1022B0004AF0EE0FFF1FBB1F661F771F881F91504C
:1022C0005040A9F79E3F510570F060CFAACF5F3F05
:1022D000ECF3983EDCF3869577956795B795F7957F
:1022E000E7959F5FC1F7FE2B880F911D9695879507
:1022F00097F90895DB018F939F932DD0BF91AF91F4
:10230000A29F800D911DA39F900DB29F900D11244F
:102310000895A1E21A2EAA1BBB1BFD010DC0AA1F26
:10232000BB1FEE1FFF1FA217B307E407F50720F03E
:10233000A21BB30BE40BF50B661F771F881F991FB9
:102340001A9469F760957095809590959B01AC0102
:10235000BD01CF01089509D0A59F900DB49F900DA8
:10236000A49F800D911D11240895A29FB001B39FD9
:10237000C001A39F700D811D1124911DB29F700D8E
:10238000811D1124911D0895CF93DF93CDB7DEB742
:10239000FE01359661917191AF0180914413909146
:1023A000451330D0DF91CF9108950F931F93CF93B2
:1023B000DF93E0914413F0914513238121FF1BC06B
:1023C000EC0100E010E08991609144137091451395
:1023D000DB011896ED91FC911997882331F009954E
:1023E000892B89F30FEF1FEFEECF8AE00995892B38
:1023F00011F4C80102C08FEF9FEFDF91CF911F91C1
:102400000F9108952F923F924F925F926F927F9219
:102410008F929F92AF92BF92CF92DF92EF92FF92F4
:102420000F931F93CF93DF93CDB7DEB72C970FB6E3
:10243000F894DEBF0FBECDBF7C016B018A01FC01A9
:1024400017821682838181FFB0C1CE0101964C01B3
:10245000F7019381F60193FD859193FF81916F01BF
:10246000882309F49EC1853239F493FD859193FF49
:1024700081916F01853221F4B70190E0C7D1E8CF97
:10248000512C312C20E02032A0F48B3269F030F452
:10249000803259F0833269F420612CC08D3239F0DA
:1024A000803339F4216026C02260246023C0286074
:1024B00021C027FD27C030ED380F3A3078F426FFD1
:1024C00006C0FAE05F9E300D1124532E13C08AE03F
:1024D000389E300D1124332E20620CC08E3221F430
:1024E00026FD5FC1206406C08C3611F4206802C04E
:1024F000883641F4F60193FD859193FF81916F0138
:102500008111C1CF982F9F7D9554933028F40C5F93
:102510001F4FFFE3F9830DC0833631F0833771F02D
:10252000833509F057C021C0F801808189830E5F8F
:102530001F4F44244394512C540114C03801F2E03D
:102540006F0E711CF801A080B18026FF03C0652DBD
:1025500070E002C06FEF7FEFC5012C874CD12C01DA
:1025600083012C852F77222E16C03801F2E06F0EE2
:10257000711CF801A080B18026FF03C0652D70E0BA
:1025800002C06FEF7FEFC5012C872AD12C012C856B
:102590002068222E830123FC19C0832D90E0481669
:1025A0005906A0F4B70180E290E030D13A94F5CF1B
:1025B000F50127FC859127FE81915F01B70190E02D
:1025C00025D131103A94F1E04F1A510841145104C9
:1025D00079F7DEC0843611F0893631F5F80127FF2E
:1025E00007C060817181828193810C5F1F4F08C099
:1025F00060817181882777FD8095982F0E5F1F4F2E
:102600002F76B22E97FF09C09095809570956195B1
:102610007F4F8F4F9F4F2068B22E2AE030E0A401F9
:1026200027D1A82EA81843C0853729F42F7EB22EB3
:102630002AE030E025C0F22FF97FBF2E8F36C1F09F
:1026400018F4883579F0ADC0803719F0883721F05B
:10265000A8C02F2F2061B22EB4FE0DC08B2D846038
:10266000B82E09C024FF0AC09F2F9660B92E06C05D
:1026700028E030E005C020E130E002C020E132E097
:10268000F801B7FE07C060817181828193810C5F80
:102690001F4F06C06081718180E090E00E5F1F4F88
:1026A000A401E6D0A82EA818FB2DFF77BF2EB6FEFA
:1026B0000BC02B2D2E7FA51450F4B4FE0AC0B2FC23
:1026C00008C02B2D2E7E05C07A2C2B2D03C07A2C12
:1026D00001C0752C24FF0DC0FE01EA0DF11D8081A3
:1026E000803311F4297E09C022FF06C073947394CD
:1026F00004C0822F867809F0739423FD12C020FF56
:1027000006C05A2C731418F4530C5718732C7314F6
:1027100060F4B70180E290E02C8778D073942C8528
:10272000F6CF731410F4371801C0312C24FF11C0F8
:10273000B70180E390E02C8769D02C8522FF16C07A
:1027400021FF03C088E590E002C088E790E0B70170
:102750000CC0822F867851F021FD02C080E201C0BA
:102760008BE227FD8DE2B70190E050D0A51430F444
:10277000B70180E390E04AD05A94F8CFAA94F401CC
:10278000EA0DF11D8081B70190E040D0A110F6CF95
:10279000332009F45DCEB70180E290E037D03A945F
:1027A000F7CFF7018681978102C08FEF9FEF2C96BC
:1027B0000FB6F894DEBF0FBECDBFDF91CF911F9152
:1027C0000F91FF90EF90DF90CF90BF90AF909F90D0
:1027D0008F907F906F905F904F903F902F900895D3
:1027E000FC010590615070400110D8F780959095DC
:1027F0008E0F9F1F0895FC016150704001900110E1
:10280000D8F7809590958E0F9F1F08950F931F9373
:10281000CF93DF93182F092FEB018B8181FD03C02C
:102820008FEF9FEF20C082FF10C04E815F812C810F
:102830003D81421753077CF4E881F9819F012F5FA6
:102840003F4F39832883108306C0E885F985812F9F
:102850000995892B29F72E813F812F5F3F4F3F83B9
:102860002E83812F902FDF91CF911F910F9108958B
:10287000FA01AA27283051F1203181F1E8946F93B1
:102880006E7F6E5F7F4F8F4F9F4FAF4FB1E03ED057
:10289000B4E03CD0670F781F891F9A1FA11D680FF5
:1028A000791F8A1F911DA11D6A0F711D811D911D28
:1028B000A11D20D009F468943F912AE0269F11249D
:1028C0003019305D3193DEF6CF010895462F477001
:1028D000405D4193B3E00FD0C9F7F6CF462F4F705C
:1028E000405D4A3318F0495D31FD4052419302D0BA
:1028F000A9F7EACFB4E0A695979587957795679560
:10290000BA95C9F700976105710508959B01AC015F
:102910000A2E06945795479537952795BA95C9F786
:10292000620F731F841F951FA01D0895F894FFCF99
:10293000FF0000000300000000BE02DF0200000AEA
:1029400000080002000100726573656E64206E6FFE
:102950006E61676720737461727461636B0D0072DE
:102960006573656E64206461746120636F6C6C656F
:102970006374696F6E20737461727461636B0D00B0
:10298000726573656E642061676720737461727429
:1029900061636B0D00676976652075700D00726567
:1029A00073656E64206E6F6E616767207374617209
:1029B000740D00726573656E6420646174612063D8
:1029C0006F6C6C656374696F6E2073746172740DE3
:1029D00000726573656E642073746172740D0072A9
:1029E0006573656E64206E6F6E61676720646174E5
:1029F0006161636B0D00726573656E642064617460
:102A000061636F6C6C656374696F6E20646174617F
:102A100061636B0D00726573656E6420646174613F
:102A200061636B0D00726573656E64206E6F6E611D
:102A3000676720646174610D00726573656E642060
:102A40006461746120636F6C6C656374696F6E2080
:102A5000646174610D00726573656E6420646174F5
:102A6000610D0053656E642061207374617274613E
:102A7000636B0D004C656166202D2073656E6420CC
:102A8000646174610D0073656E64207374617274A7
:102A900061636B61636B0D0073656E6420646174C8
:102AA0006161636B61636B0D0053656E64206461EB
:102AB000746161636B0D0073656E64207374617281
:102AC0007420746F2061206368696C640D00736505
:102AD0006E6420737461727420746F206E657874F4
:102AE000206368696C640D0073656E6420646174B2
:102AF0006120757020747265650D005265636569AB
:102B00007665206E6F6E2D616767207374617274D5
:102B10000D0053656E64206F776E206E6F6E2D61B1
:102B2000676720646174610D0053656E642073747F
:102B300061727461636B0D004C656166202D2073BA
:102B4000656E64206E6F6E2D6167672064617461CD
:102B500020757020747265650D0053656E64206E7B
:102B60006F6E2D61676720737461727461636B614E
:102B7000636B0D0053656E64206E6F6E2D61676729
:102B8000206461746161636B61636B0D0053656EFA
:102B900064206E6F6E616767207374617274207455
:102BA0006F2061206368696C642E0D0053656E644C
:102BB000696E6720746F2025640D0A004375727278
:102BC000656E7420706F6C6963793A2025640D0A14
:102BD0000053656E64207570207265636569766563
:102BE00064206E6F6E61676720646174610D0053CD
:102BF000656E64206E6F6E616767206461746161E9
:102C0000636B0D0053656E64206F776E20636F6C8D
:102C10006C656374656420646174610D004C65616A
:102C200066202D2073656E64207570206F776E208E
:102C3000636F6C6C656374656420646174610D001E
:102C400053656E64206461746120636F6C6C6563AE
:102C500074696F6E2073746172742061636B616359
:102C60006B0053656E64206461746120636F6C6CEB
:102C7000656374696F6E2061636B61636B0D0053F4
:102C8000656E64206461746120636F6C6C6563744D
:102C9000696F6E20737461727420746F2061206399
:102CA00068696C640053656E6420757020636F6C96
:102CB0006C656374656420646174610D0053656EB6
:102CC00064206461746120636F6C6C656374696F08
:082CD0006E2061636B0D000032
:00000001FF
