S00C00004E6F64652E7372656392
S11300008FC00000ABC00000A9C00000A7C0000062
S1130010A5C00000A3C00000A1C000009FC0000054
S11300209DC000009BC0000099C0000097C0000064
S113003095C0000093C0000091C000008FC0000074
S11300408DC000008BC0000089C0000087C0000084
S113005085C0000083C0000081C000007FC0000094
S11300607DC000007BC0000079C0000077C00000A4
S113007075C0000073C0000071C000006FC00000B4
S11300806DC000006BC0000069C0000067C00000C4
S113009065C0000063C0000061C000005FC00000D4
S11300A05DC000005BC0000059C0000057C00000E4
S11300B055C0000053C0000051C000004FC00000F4
S11300C04DC000004BC0000049C0000047C0000004
S11300D045C0000043C0000041C000003FC0000014
S11300E03DC000003BC0000039C0000037C0000024
S11300F035C0000033C0000031C000002FC0000034
S11301002DC000002BC0000029C0000027C0000043
S113011025C0000023C0000021C000001FC0000053
S113012011241FBECFEFD1E4DEBFCDBF15E0A0E0A8
S1130130B2E0EAE3F0E200E00BBF02C007900D92E8
S1130140A031B107D9F728E1A0E1B5E001C01D92C3
S1130150A635B207E1F7B1D20C941B1051CF6A9ABD
S11301606B9A6C9A729A739A749A0895813011F406
S113017072980895823011F473980895833009F4C5
S113018074980895813011F4729A0895823011F4AC
S1130190739A0895833009F4749A0895FF920F9323
S11301A01F93CF93DF93082F192FF62EC9E3D1E0C5
S11301B0188286E090E0CCD381E08883809141016D
S11301C080931005882351F488E0809342018EEFD8
S11301D091E0BED380914101809310058BE0809320
S11301E048018FEF80934F0100931105109312057E
S11301F000936001109361011092620110926301F7
S11302008091410180931005F0921305DF91CF9105
S11302101F910F91FF9008958FEF80934F0186E017
S113022080934201E1E4F1E080818F718630E1F74F
S1130230ECE4F1E080818068808308958091140566
S11302401092140508952FEF20934F01209141013E
S11302502F71293041F029E020934201E1E4F1E0DB
S113026020812930E9F7262F235F2093800120E2A3
S11302702093810122E22093820121E020938301D3
S11302801092840110928501509386014093870156
S113029010928801109289012091120520938A01FD
S11302A02091110520938B01662391F0A82FB92F7B
S11302B0615070E0CB0183579E4FECE8F1E02D9143
S11302C02193E817F907D9F7FB01E357FE4F02C062
S11302D0ECE8F1E01082118282E080934201EFE4C5
S11302E0F1E0808186FFFDCF8FEF80934F0186E0A0
S11302F080934201E1E4F1E080818F718630E1F77F
S113030081E0809314058091410180931005089544
S113031090914F0181E093FF80E008958F929F9226
S1130320AF92BF92CF92DF92EF92FF920F931F93FF
S1130330CF93782FC92F5A01490140917B018FEF48
S113034080930002EFE4F1E0808182FFFDCF0CC0D6
S1130350808190E08F7190702817390764F4808150
S11303608F718093000204C0AFE4B1E0E6E4F1E0F1
S11303702091000230E08C9183FFEACF842F8B50D0
S1130380462F861708F4482F3091850120E080918C
S1130390860190E0822B932BF50191838083309129
S11303A0890120E080918A0190E0822B932BF40153
S11303B091838083442399F0A72FBC2F242F2150AD
S11303C030E0C90184579E4FEBE8F1E051915D9311
S11303D0E817F907D9F7F901E457FE4F02C0EBE833
S11303E0F1E0808180931505F601808380914701B7
S11303F080931605F701808380914601881F882722
S1130400881FF8018083E1E4F1E080818F718630F8
S1130410E1F7ECE4F1E080818F778083808180686C
S113042080838FEF80934F01809141018093100569
S1130430842F8250CF911F910F91FF90EF90DF9006
S1130440CF90BF90AF909F908F900895E5E4F1E036
S113045090818F70907F982B9083089580914601AE
S11304608F7190910002981710F480930002089500
S1130470809100021092000208958091160508955B
S113048080911505089580911305089580911105B3
S11304909091120508954F925F926F927F928F927E
S11304A09F92AF92BF92CF92DF92EF92FF924B0155
S11304B05C01E7D12B013C01689413F876946794AE
S11304C0579447941694D1F70F2EFAE0CF2EF0E00C
S11304D0DF2EF0E0EF2EF0E0FF2EF02DC501B40189
S11304E0A70196010E940E0DC301B2010E940E0DD8
S11304F0CA01B9016B5F7F4F8F4F9F4FA7019601D0
S11305000E940E0DDA01C9010197A109B109E1ECBC
S1130510F0E010821092C00026E02093C200292F40
S11305202F702093C5008093C40088E1808381E00C
S113053092E09093531880935218E2E5F8E1929375
S113054082939583848381E080931705FF90EF90D5
S1130550DF90CF90BF90AF909F908F907F906F90DF
S11305605F904F900895809117050895E0ECF0E0B6
S1130570908195FFFDCF8093C6000895CF93C82F37
S1130580F5DF8C2F90E0CF910895CF93DF93EC01AA
S11305908881882329F02196E9DF89918823E1F76E
S11305A0DF91CF9108958091C000881F8827881F0C
S11305B00895F9DF8823E9F38091C6000895CF9365
S11305C0F8DFC82FD3DF8C2F90E0CF910895BC01C2
S11305D040911D0550911E054817590741F1AFE19F
S11305E0B5E09D012E5E3F4FFD01819191918617EB
S11305F09707E9F0E217F307C1F74115510541F0F8
S113060021E030E0A9018D919D91009759F402C039
S113061040E050E0FA01EE0FFF1FE35EFA4F7183F2
S1130620608308952F5F3F4F2A30310559F70895AD
S1130630FC01009729F18081882311F1808591853F
S11306400097F1F0662339F022812130C9F4019733
S11306509187808706C02281222391F40197918794
S1130660808780859185009759F481E08383868112
S11306709781009719F081E0818301C01182108273
S11306800895FC011082118262831382558344838E
S1130690378326839CCFFC018081882341F481E049
S11306A08083118213828481958191878087CF0111
S11306B08ECFFC01108211820895CF93DF93CDB7C2
S11306C0DEB727970FB6F894DEBF0FBECDBF0DE19E
S11306D015E00F2EF4E1AF2EBB24F02DA00EB11EB9
S11306E0F80111921192EA15FB05D9F7CFD0CDD1BB
S11306F0442455243324702E612E0F2EFDE18F2EB9
S1130700F5E09F2EF02D9ADD882309F0ABD700DEAB
S1130710882389F181E395E060E8AE014A5F5F4F89
S11307209E012C5F3F4F8E010D5F1F4FEE24FF246F
S11307306894E1F8EC0EFD1E6E010894C11CD11CF6
S1130740EDDD082F8B818823B1F0A0DE2E813F815F
S11307508217930739F08FEF2F3F380719F093DE94
S1130760882349F06C817D818E819F81402F50E0E8
S113077021E335E018D3B0D0DC01CB01409118055A
S11307805091190560911A0570911B054817590776
S11307906A077B0778F5A0D0DC01CB0188519C4F18
S11307A0AF4FBF4F8093180590931905A0931A0576
S11307B0B0931B05072D162DD8018D919D918D01A8
S11307C061E036DF0A151B05B9F70894411C511C7A
S11307D0B8EE4B16B3E05B0668F0072D162DF80152
S11307E0819191918F0160E023DFA016B106B9F7E2
S11307F044245524A72DB62D00E010E0ED91FD9181
S1130800309771F18381882359F1CF0157D1C80101
S1130810880F991F880D991DDC01ED91FC911197AA
S113082013828181882341F086819781009721F08A
S11308309187808781E0808311821BD0882331F0E7
S1130840332021F458D7332433945DCF16D0882332
S113085009F459CF332009F456CF4ED7332453CF5C
S11308600F5F1F4F0A30110549F6E7CF6D98759A4F
S1130870089581E0659980E00895FBDF91E0892780
S1130880089560E072E18AE790E008951092800094
S113089081E0809381001092820010928500109272
S11308A0840010926F000895CF93DF93EC01EEDF84
S11308B0D0938500C0938400DF91CF91089581E0A7
S11308C0B09B80E0882311F091E096BB089580915D
S11308D08400909185000895CF92DF92EF92FF9269
S11308E0C0908400D0908500D694C794D694C794C1
S11308F0D694C794EE24FF24E2DF8823A1F08091EC
S1130900B1059091B205A091B305B091B4058050A2
S1130910904EAF4FBF4F8093B1059093B205A09313
S1130920B305B093B4058091B1059091B205A0913F
S1130930B305B091B405C80ED91EEA1EFB1E6C2D7A
S11309407D2D8E2D9F2DFF90EF90DF90CF900895F9
S11309508F929F92AF92BF92CF92DF92EF92FF92CB
S11309604C01AA24BB24880C991CAA1CBB1C880C0F
S1130970991CAA1CBB1C880C991CAA1CBB1C80E0DB
S1130980881680E0980681E0A80680E0B80680F129
S11309907501640180E090E087DF80E090E0AFEFD4
S11309A0BFEFC80ED91EEA1EFB1E89DF8823E9F3B8
S11309B090E0C91690E0D90691E0E90690E0F906C6
S11309C048F780E090E0AFEFBFEF880E991EAA1EB3
S11309D0BB1EB5018827992720E030E04FEF5FEF79
S11309E00E94FF0CDC01CB01880E991EAA1EBB1EBF
S11309F0C4018095909558DF62DF8823E9F3FF9066
S1130A00EF90DF90CF90BF90AF909F908F9008951C
S1130A10CF93DF93EC018234910540F088EE9DEF93
S1130A2097DFC154D040C234D105C0F7CE0190DF66
S1130A30DF91CF9108958AE08093770088E08093D6
S1130A407B0089EC80937C0084EC80937A00EAE755
S1130A50F0E0808186FDFDCF10927A0080917800CD
S1130A60909179000895E7DFBC0180E090E0D6D64C
S1130A7027ED33EA40E95FE35FD726E636E648E848
S1130A8053E43BD69FD6CB01089569DB60E875E259
S1130A9080E090E000DD60E083E090E07FDB8FE0C9
S1130AA0D5DC28E833E148EE53E061E080EC95E0E2
S1130AB0E8DD80EC95E0EFDDAFCB0895CF93DF93D5
S1130AC0CDB7DEB7C058D1090FB6F894DEBF0FBE5C
S1130AD0CDBF80911502909116028330910509F0E3
S1130AE040C02091B7053091B80580910F029091D4
S1130AF01002281739073CF587E192E0DBD782E042
S1130B0090E09093160280931502E091CC05F09149
S1130B10CD058081898382818B8384818D838581C6
S1130B208E83878188874081518169E0CE01019657
S1130B308ADB8091B7059091B80501969093B8052A
S1130B408093B70526C182E492E0B4D781E090E0B7
S1130B5090931602809315021092B8051092B7056F
S1130B6018C18530910509F042C02091B705309134
S1130B70B80580910F0290911002281739074CF59F
S1130B8082E692E097D784E090E0909316028093F7
S1130B901502E091BB05F091BC05EE0FFF1FE25B6F
S1130BA0F94E408151818091B505498393E09B833F
S1130BB091E09D838E8369E0CE01019644DB8091B0
S1130BC0B7059091B80501969093B8058093B70541
S1130BD0E0C08AE892E06ED781E090E0909316023C
S1130BE0809315021092B8051092B705D2C08730D1
S1130BF0910509F4CEC08930910509F086C0209191
S1130C00B7053091B805809111029091120228170E
S1130C1039070CF06CC087EA92E04CD788E090E08A
S1130C209093160280931502E091CC05F091CD05C6
S1130C308081898382818B8384818D8385818E8366
S1130C408781888781818F9380818F938BE294E061
S1130C509F938F931ED7E091CC05F091CD058381AE
S1130C608F9382818F9389E194E09F938F9311D71F
S1130C70E091CC05F091CD0584811F928F938FE490
S1130C8094E09F938F9305D7E091CC05F091CD0527
S1130C9086818F9385818F9382E694E09F938F93CF
S1130CA0F8D6E091CC05F091CD0580858F938781AE
S1130CB08F9386E794E09F938F93EBD6E091CC05D6
S1130CC0F091CD054081518169E0CE010196BBDAF6
S1130CD08091B7059091B80501969093B8058093DB
S1130CE0B7050FB6F894DEBF0FBECDBF52C081EC7E
S1130CF092E0E0D681E090E0909316028093150292
S1130D001092B8051092B70544C00B9709F041C082
S1130D102091B7053091B80580911102909112028B
S1130D20281739074CF580EE92E0C4D6E0914E18AE
S1130D30F0914F188081898382818B8384818D8394
S1130D4085818E838781888781858A8783858C873F
S1130D5085858E878785888B4081518160E1CE01AE
S1130D60019671DA8091B7059091B8050196909338
S1130D70B8058093B7050DC080EF92E09BD681E063
S1130D8090E090931602809315021092B805109289
S1130D90B705C058DF4F0FB6F894DEBF0FBECDBF06
S1130DA0DF91CF9108952F923F925F926F927F923D
S1130DB08F929F92AF92BF92CF92DF92EF92FF9267
S1130DC00F931F93CF93DF93CDB7DEB7C058D109EC
S1130DD00FB6F894DEBF0FBECDBF89018BE093E060
S1130DE069D6D8018C9190E0E0E0F0E091838083B3
S1130DF01296BC9012978B2C912C9382828214961B
S1130E002C911497248315968C91159790E09683D2
S1130E1085831796DC90ED2CF12CF086E782213047
S1130E2009F0F9C080911502909116028130910564
S1130E3009F0B7C08CE293E03DD681E097D9809168
S1130E40BD059091BE05892BE1F082E090E090937E
S1130E50160280931502C4019093BA058093B905D4
S1130E60B98283E08B8381E08D831E82D8861092C1
S1130E70B8051092B705A40169E0CE010196E3D943
S1130E80D8C38CE393E016D6B1E0EB16F10409F471
S1130E905BC0E2E0EE16F10449F4809113029091F4
S1130EA0140290931202809311024EC0F3E0EF16E5
S1130EB0F10459F48091130290911402880F991F40
S1130EC090931202809311023FC024E0E216F104D1
S1130ED049F480911302909114029093120280932A
S1130EE0110232C085E0E816F10459F4809113022E
S1130EF090911402880F991F90931202809311020B
S1130F0023C096E0E916F10469F4809113029091EC
S1130F101402880F991F880F991F909312028093CF
S1130F20110212C0A7E0EA16F10471F480911302D1
S1130F3090911402880F991F880F991F880F991F89
S1130F40909312028093110283E010D98AE090E01A
S1130F50909316028093150286DD10924F1810921A
S1130F604E18B98293E09B831D8221E02E83D8869C
S1130F70BA869C878E87988B1F92BF9286E693E0F1
S1130F809F938F9386D51092B8051092B705A4014C
S1130F9060E1CE01019657D90F900F900F900F90FA
S1130FA048C387309105D1F486E793E083D586E082
S1130FB090E09093160280931502B98283E08B83AC
S1130FC082E08D831E82D8861092B8051092B705F0
S1130FD0A40169E0CE01019636D92BC30B9709F021
S1130FE028C389E893E066D58CE090E090931602DC
S1130FF080931502B98283E08B8382E08D831E8205
S1131000D8861092B8051092B705A40169E0CE0104
S1131010019619D90EC321116EC1809115029091C8
S11310201602079709F005C38BE993E043D582E0E4
S11310309DD8F801A0812A2E312CE0E0F0E0318225
S11310402082D8011296AC901297CA2CD12CD3824C
S1131050C28214967C901497748215965C901597AE
S1131060852D90E09683858317966C901797662D4F
S113107070E07087678319964C91199750E05287F6
S113108041871B962C911B9730E0348723871D964C
S11310908C901D97912C968685861F961C91178798
S11310A0E091BB05F091BC05E295F295F07FFE2737
S11310B0E07FFE27E25BF94F31822082D382C28235
S11310C074829683858370876783528741873487C8
S11310D02387968685861787B1E0EB16F10409F419
S11310E077C0E2E0EE16F10449F480911302909186
S11310F0140290931202809311026AC0F3E0EF1677
S1131100F10459F48091130290911402880F991FED
S113111090931202809311025BC024E0E216F10462
S113112081F44091130250911402849F9001859F91
S1131130300D949F300D112430931202209311022C
S113114047C0A5E0EA16F10491F4880F991F409175
S1131150130250911402849F9001859F300D949F37
S1131160300D1124309312022093110231C0B6E0E5
S1131170EB16F104A1F4880F991F880F991F409171
S1131180130250911402849F9001859F300D949F07
S1131190300D1124309312022093110219C0E7E09C
S11311A0EE16F104A9F4880F991F880F991F880F70
S11311B0991F4091130250911402849F9001859FBE
S11311C0300D949F300D112430931202209311029C
S11311D0809112028F93809111028F938AEA93E097
S11311E09F938F9356D41F925F9288EB93E09F93C3
S11311F08F934FD41F92AF9280EC93E09F938F9381
S113120048D41F927F9287ED93E09F938F9341D4AC
S11312101F921F928AEE93E09F938F933AD41F926A
S113122011E01F9388EF93E09F938F9332D41F9222
S113123082E08F9385E094E09F938F932AD488E093
S113124090E09093160280931502E091CC05F09102
S1131250CD05D182C082E091CC05F091CD0583E02B
S113126090E0938382831483168215821F92BF9227
S113127085E194E09F938F930CD40FB6F894DEBF6E
S11312800FBECDBF1F92AF9282E294E09F938F93E3
S113129000D41F9203E00F9384E394E09F938F9311
S11312A0F8D31F921F9386E494E09F938F93F1D316
S11312B01F921F9289E594E09F938F93EAD31F9224
S11312C06F928DE694E09F938F93E3D3A9820B836F
S11312D01D831E8268861092B8051092B705A60178
S11312E069E0CE0101960E9423010FB6F894DEBF97
S11312F00FBECDBF9EC1223009F09BC18091150263
S1131300909116028330910509F055C082E894E06B
S1131310D1D388E994E0CED384E090E09093160290
S113132080931502E091BB05F091BC05EE0FFF1F01
S1131330E25BF94E1081018119830F2EF3E0EF2E49
S1131340F02DEB82FF24F394FD821E82D8860F9346
S11313501F938BE294E09F938F939BD31F92EF9202
S113136089E194E09F938F9394D31F92FF928FE42B
S113137094E09F938F938DD31F921F9282E694E003
S11313809F938F9386D31F92DF9286E794E09F9377
S11313908F937FD31092B8051092B705412F502F29
S11313A069E0CE0101960E9423010FB6F894DEBFD6
S11313B00FBECDBF3EC1099709F03BC182EB94E05B
S11313C079D32091BD053091BE052150310980911A
S11313D0BB059091BC058217930754F587EC94E004
S11313E069D38091BB059091BC0501969093BC058F
S11313F08093BB0524E030E030931602209315025D
S1131400FC01EE0FFF1FE25BF94E408151814983DD
S113141083E08B8381E08D831E82D8861092B80589
S11314201092B70569E0CE0101960E94230101C123
S113143084EE94E03FD38091BD059091BE051816CB
S11314401906E4F4EDE5F6E09C0122953295307F2F
S11314503227207F3227235A394FC12C00E010E075
S1131460DF0112978D919C910817190710F4C08021
S11314708C017096E217F30799F703C0C12C00E0C2
S113148010E0F1DA5C010817190710F0580104C0E4
S11314900F2EF3E0CF2EF02D8091BD059091BE0567
S11314A018161906B4F4E3E5F6E0AC01429552953A
S11314B0507F5427407F54274D5A594F20E030E045
S11314C080819181280F391F7096E417F507C1F7C1
S11314D002C020E030E089010F5F1F4FF1E0EF16FA
S11314E0F10449F480911302909114029093120232
S11314F0809311027AC022E0E216F10449F480914B
S113150013029091140290931202809311026DC001
S113151083E0E816F10459F48091130290911402C7
S1131520880F991F90931202809311025EC094E079
S1131530E916F10481F42091130230911402029F00
S1131540C001039F900D129F900D112490931202DD
S1131550809311024AC0A5E0EA16F10499F420919F
S1131560130230911402A801440F551F429FC00179
S1131570439F900D529F900D1124909312028093DB
S1131580110233C0B6E0EB16F104A9F42091130262
S113159030911402A801440F551F440F551F429F58
S11315A0C001439F900D529F900D112490931202FD
S11315B0809311021AC0E7E0EE16F104B1F4209111
S11315C0130230911402A801440F551F440F551FF4
S11315D0440F551F429FC001439F900D529F900D91
S11315E01124909312028093110283E00E94B600AA
S11315F08AE090E090931602809315024091B90519
S11316005091BA0510924F1810924E18498383E0F6
S11316108B831D820E83D8864A878C87AE86C88AC0
S11316201092B8051092B70560E1CE0101960E94B0
S11316302301C058DF4F0FB6F894DEBF0FBECDBFF5
S1131640DF91CF911F910F91FF90EF90DF90CF909A
S1131650BF90AF909F908F907F906F905F903F90DE
S11316602F9008951092BF05EEECF5E08EE496E01D
S11316701192E817F907E1F780911502909116028B
S11316808230910539F483E090E0909316028093C0
S1131690150208958430910539F487E090E0909321
S11316A016028093150208958630910539F487E077
S11316B090E0909316028093150208958830910566
S11316C039F489E090E0909316028093150208950E
S11316D08C30910539F481E090E090931602809368
S11316E0150208950A9731F48BE090E09093160266
S11316F0809315020895089508955058BB27AA278A
S11317000ED0E0C0D1D030F0D6D020F031F49F3FDD
S113171011F41EF4C6C00EF4E095E7FBBCC0E92F3B
S1131720E2D080F3BA17620773078407950718F0AD
S113173071F49EF5FAC00EF4E0950B2EBA2FA02D8D
S11317400B01B90190010C01CA01A0011124FF276A
S1131750591B99F0593F50F4503E68F11A16F04065
S1131760A22F232F342F4427585FF3CF4695379564
S11317702795A795F0405395C9F77EF41F16BA0B29
S1131780620B730B840BBAF09150A1F0FF0FBB1FD7
S1131790661F771F881FC2F70EC0BA0F621F731F20
S11317A0841F48F4879577956795B795F7959E3F7D
S11317B008F0B3CF9395880F08F09927EE0F97950B
S11317C08795089598D088F09F5790F0B92F99275E
S11317D0B751A0F0D1F0660F771F881F991F1AF038
S11317E0BA95C9F712C0B13081F09FD0B1E0089525
S11317F09CC0672F782F8827B85F39F0B93FCCF3A6
S1131800869577956795B395D9F73EF4909580952D
S1131810709561957F4F8F4F9F4F0895E89409C04D
S113182097FB3EF490958095709561957F4F8F4F0F
S11318309F4F9923A9F0F92F96E9BB279395F69525
S1131840879577956795B795F111F8CFFAF4BB0FA3
S113185011F460FF1BC06F5F7F4F8F4F9F4F16C007
S1131860882311F096E911C0772321F09EE8872F91
S1131870762F05C0662371F096E8862F70E060E04D
S11318802AF09A95660F771F881FDAF7880F9695C6
S1131890879597F9089597F99F6780E870E060E06D
S11318A008959FEF80EC089500240A9416161706F5
S11318B018060906089500240A941216130614063D
S11318C005060895092E0394000C11F4882352F0A0
S11318D0BB0F40F4BF2B11F460FF04C06F5F7F4F58
S11318E08F4F9F4F089557FD9058440F551F59F03F
S11318F05F3F71F04795880F97FB991F61F09F3FF9
S113190079F087950895121613061406551FF2CF21
S11319104695F1DF08C0161617061806991FF1CF71
S113192086957105610508940895E894BB27662798
S11319307727CB0197F908950BD0C4CFB5DF28F0F2
S1131940BADF18F0952309F0A6CFABCF1124EECF60
S1131950CADFA0F3959FD1F3950F50E0551F629F06
S1131960F001729FBB27F00DB11D639FAA27F00DF4
S1131970B11DAA1F649F6627B00DA11D661F829F1B
S11319802227B00DA11D621F739FB00DA11D621F00
S1131990839FA00D611D221F749F3327A00D611D1D
S11319A0231F849F600D211D822F762F6A2F1124FF
S11319B09F5750408AF0E1F088234AF0EE0FFF1F52
S11319C0BB1F661F771F881F91505040A9F79E3F89
S11319D0510570F060CFAACF5F3FECF3983EDCF383
S11319E0869577956795B795F795E7959F5FC1F7C6
S11319F0FE2B880F911D9695879597F90895DB0125
S1131A008F939F932DD0BF91AF91A29F800D911D75
S1131A10A39F900DB29F900D11240895A1E21A2E58
S1131A20AA1BBB1BFD010DC0AA1FBB1FEE1FFF1F7E
S1131A30A217B307E407F50720F0A21BB30BE40BCE
S1131A40F50B661F771F881F991F1A9469F7609515
S1131A507095809590959B01AC01BD01CF010895CF
S1131A6009D0A59F900DB49F900DA49F800D911D4A
S1131A7011240895A29FB001B39FC001A39F700DCC
S1131A80811D1124911DB29F700D811D1124911D82
S1131A900895CF93DF93CDB7DEB7FE0135966191FC
S1131AA07191AF01809152189091531830D0DF9109
S1131AB0CF9108950F931F93CF93DF93E091521822
S1131AC0F0915318238121FF1BC0EC0100E010E0CA
S1131AD089916091521870915318DB011896ED9119
S1131AE0FC911997882331F00995892B89F30FEF1D
S1131AF01FEFEECF8AE00995892B11F4C80102C0CB
S1131B008FEF9FEFDF91CF911F910F9108952F9247
S1131B103F924F925F926F927F928F929F92AF9279
S1131B20BF92CF92DF92EF92FF920F931F93CF93C6
S1131B30DF93CDB7DEB72C970FB6F894DEBF0FBE98
S1131B40CDBF7C016B018A01FC011782168283815F
S1131B5081FFB0C1CE0101964C01F7019381F601DA
S1131B6093FD859193FF81916F01882309F49EC1B0
S1131B70853239F493FD859193FF81916F0185320C
S1131B8021F4B70190E0C7D1E8CF512C312C20E0EB
S1131B902032A0F48B3269F030F4803259F0833271
S1131BA069F420612CC08D3239F0803339F421601E
S1131BB026C02260246023C0286021C027FD27C0DE
S1131BC030ED380F3A3078F426FF06C0FAE05F9E15
S1131BD0300D1124532E13C08AE0389E300D112489
S1131BE0332E20620CC08E3221F426FD5FC12064A6
S1131BF006C08C3611F4206802C0883641F4F60120
S1131C0093FD859193FF81916F018111C1CF982F2D
S1131C109F7D9554933028F40C5F1F4FFFE3F983A5
S1131C200DC0833631F0833771F0833509F057C026
S1131C3021C0F801808189830E5F1F4F442443949F
S1131C40512C540114C03801F2E06F0E711CF801DC
S1131C50A080B18026FF03C0652D70E002C06FEF45
S1131C607FEFC5012C874CD12C0183012C852F7764
S1131C70222E16C03801F2E06F0E711CF801A0800C
S1131C80B18026FF03C0652D70E002C06FEF7FEFC7
S1131C90C5012C872AD12C012C852068222E830192
S1131CA023FC19C0832D90E048165906A0F4B7010F
S1131CB080E290E030D13A94F5CFF50127FC85918C
S1131CC027FE81915F01B70190E025D131103A944C
S1131CD0F1E04F1A51084114510479F7DEC08436FB
S1131CE011F0893631F5F80127FF07C06081718151
S1131CF0828193810C5F1F4F08C0608171818827A6
S1131D0077FD8095982F0E5F1F4F2F76B22E97FF89
S1131D1009C090958095709561957F4F8F4F9F4F27
S1131D202068B22E2AE030E0A40127D1A82EA818FA
S1131D3043C0853729F42F7EB22E2AE030E025C037
S1131D40F22FF97FBF2E8F36C1F018F4883579F061
S1131D50ADC0803719F0883721F0A8C02F2F20613B
S1131D60B22EB4FE0DC08B2D8460B82E09C024FFA2
S1131D700AC09F2F9660B92E06C028E030E005C047
S1131D8020E130E002C020E132E0F801B7FE07C0F4
S1131D9060817181828193810C5F1F4F06C06081D5
S1131DA0718180E090E00E5F1F4FA401E6D0A82E61
S1131DB0A818FB2DFF77BF2EB6FE0BC02B2D2E7F50
S1131DC0A51450F4B4FE0AC0B2FC08C02B2D2E7E1C
S1131DD005C07A2C2B2D03C07A2C01C0752C24FF4E
S1131DE00DC0FE01EA0DF11D8081803311F4297EBE
S1131DF009C022FF06C07394739404C0822F8678AE
S1131E0009F0739423FD12C020FF06C05A2C7314EA
S1131E1018F4530C5718732C731460F4B70180E250
S1131E2090E02C8778D073942C85F6CF731410F43B
S1131E30371801C0312C24FF11C0B70180E390E0B2
S1131E402C8769D02C8522FF16C021FF03C088E5AA
S1131E5090E002C088E790E0B7010CC0822F86783A
S1131E6051F021FD02C080E201C08BE227FD8DE22A
S1131E70B70190E050D0A51430F4B70180E390E0AE
S1131E804AD05A94F8CFAA94F401EA0DF11D808146
S1131E90B70190E040D0A110F6CF332009F45DCE15
S1131EA0B70180E290E037D03A94F7CFF70186810A
S1131EB0978102C08FEF9FEF2C960FB6F894DEBF88
S1131EC00FBECDBFDF91CF911F910F91FF90EF9087
S1131ED0DF90CF90BF90AF909F908F907F906F9046
S1131EE05F904F903F902F900895FC0105906150B2
S1131EF070400110D8F7809590958E0F9F1F08951C
S1131F00FC016150704001900110D8F780959095C4
S1131F108E0F9F1F08950F931F93CF93DF93182F56
S1131F20092FEB018B8181FD03C08FEF9FEF20C050
S1131F3082FF10C04E815F812C813D81421753077F
S1131F407CF4E881F9819F012F5F3F4F3983288317
S1131F50108306C0E885F985812F0995892B29F717
S1131F602E813F812F5F3F4F3F832E83812F902F00
S1131F70DF91CF911F910F910895FA01AA2728307C
S1131F8051F1203181F1E8946F936E7F6E5F7F4F42
S1131F908F4F9F4FAF4FB1E03ED0B4E03CD0670FBE
S1131FA0781F891F9A1FA11D680F791F8A1F911D11
S1131FB0A11D6A0F711D811D911DA11D20D009F461
S1131FC068943F912AE0269F11243019305D3193A3
S1131FD0DEF6CF010895462F4770405D4193B3E08C
S1131FE00FD0C9F7F6CF462F4F70405D4A3318F033
S1131FF0495D31FD4052419302D0A9F7EACFB4E0E4
S1132000A6959795879577956795BA95C9F700979B
S11320106105710508959B01AC010A2E069457953C
S1132020479537952795BA95C9F7620F731F841F93
S10D2030951FA01D0895F894FFCF3A
S113203AFF0000000300000000BE02DF0200000AE5
S113204A00040002000100537461727461636B201E
S113205A6469646E2774206D616B65206974202D30
S113206A2073656E64696E6720616E6F7468657249
S113207A0D00476976696E67207570206F6E20734C
S113208A656E64696E6720737461727461636B73DD
S113209A0D005374617274206469646E2774206D30
S11320AA616B65206974202D2073656E64696E679F
S11320BA20616E6F746865720D00476976696E6790
S11320CA207570206F6E2073656E64696E67207365
S11320DA74617274730D0053656E64696E6720616E
S11320EA6E6F7468657220646174612061636B0D3C
S11320FA00476976696E67207570206F6E20736574
S113210A6E64696E67206461746161636B730D0048
S113211A526573656E64696E6720646174610D004B
S113212A476976696E67207570206F6E2073656ED5
S113213A64696E6720646174610D00526563656940
S113214A76696E6720736F6D6520736F7274206F82
S113215A66206D6573736167652E0D00526563654C
S113216A697665642073746172740D0049276D2061
S113217A61206C656166202D2073656E64696E67E3
S113218A2064617461206261636B20746F207061E2
S113219A72656E740D0053656E64696E6720746FA0
S11321AA2025640D0A0052656365697665642073A7
S11321BA7461727461636B0D005265636569766557
S11321CA64206461746161636B0D005265636569BF
S11321DA76656420646174610D0054784C696D6994
S11321EA743A2025640D0A00613A2025640D0A0018
S11321FA53656E64696E6720746F206368696C64E2
S113220A3A2025640D0A004D65737361676520746D
S113221A7970653A2025640D0A0041676720446194
S113222A74612025640D0A004167672041636B20AD
S113223A25640D0A004167672041636B41636B2083
S113224A25640D0A006D7367207372632025640D7B
S113225A0A00666972737420676F20647374202598
S113226A640D0A00666972737420676F207372635F
S113227A2025640D0A00666972737420676F2074DE
S113228A7970652025640D0A006669727374206783
S113229A6F206E6F6465732025640D0A0066697287
S11322AA737420676F20706F6C6963792025640DDD
S11322BA0A00726563656976656420737461727471
S11322CA61636B61636B0D0073656E64696E67208D
S11322DA737461727420746F2061206368696C641A
S11322EA0D00526563656976656420646174616191
S11322FA636B61636B0D0053656E64696E6720736B
S113230A7461727420746F206E65787420636869CE
S113231A6C640D00446F6E6520616C6C206368699F
S113232A6C6472656E2C2073656E64696E672064D2
S113233A61746120746F20706172656E740D00009F
S9030000FC
